{
	"Auction.sol": {
		"Auction": {
			"abi": [
				{
					"inputs": [],
					"stateMutability": "nonpayable",
					"type": "constructor"
				},
				{
					"anonymous": false,
					"inputs": [
						{
							"indexed": false,
							"internalType": "address",
							"name": "winner",
							"type": "address"
						},
						{
							"indexed": false,
							"internalType": "uint256",
							"name": "amount",
							"type": "uint256"
						}
					],
					"name": "AuctionEnded",
					"type": "event"
				},
				{
					"anonymous": false,
					"inputs": [
						{
							"indexed": true,
							"internalType": "address",
							"name": "bidder",
							"type": "address"
						},
						{
							"indexed": false,
							"internalType": "uint256",
							"name": "amount",
							"type": "uint256"
						}
					],
					"name": "CancelBid",
					"type": "event"
				},
				{
					"anonymous": false,
					"inputs": [
						{
							"indexed": true,
							"internalType": "address",
							"name": "bidder",
							"type": "address"
						},
						{
							"indexed": false,
							"internalType": "uint256",
							"name": "amount",
							"type": "uint256"
						}
					],
					"name": "NewBid",
					"type": "event"
				},
				{
					"inputs": [
						{
							"internalType": "address",
							"name": "",
							"type": "address"
						}
					],
					"name": "bids",
					"outputs": [
						{
							"internalType": "uint256",
							"name": "",
							"type": "uint256"
						}
					],
					"stateMutability": "view",
					"type": "function"
				},
				{
					"inputs": [],
					"name": "endAuction",
					"outputs": [],
					"stateMutability": "nonpayable",
					"type": "function"
				},
				{
					"inputs": [],
					"name": "getContractBalance",
					"outputs": [
						{
							"internalType": "uint256",
							"name": "",
							"type": "uint256"
						}
					],
					"stateMutability": "view",
					"type": "function"
				},
				{
					"inputs": [
						{
							"internalType": "address",
							"name": "bidder",
							"type": "address"
						}
					],
					"name": "getWithdrawableBid",
					"outputs": [
						{
							"internalType": "uint256",
							"name": "",
							"type": "uint256"
						}
					],
					"stateMutability": "view",
					"type": "function"
				},
				{
					"inputs": [],
					"name": "hasEnded",
					"outputs": [
						{
							"internalType": "bool",
							"name": "",
							"type": "bool"
						}
					],
					"stateMutability": "view",
					"type": "function"
				},
				{
					"inputs": [],
					"name": "master",
					"outputs": [
						{
							"internalType": "address",
							"name": "",
							"type": "address"
						}
					],
					"stateMutability": "view",
					"type": "function"
				},
				{
					"inputs": [],
					"name": "placeBid",
					"outputs": [],
					"stateMutability": "payable",
					"type": "function"
				},
				{
					"inputs": [],
					"name": "topAddress",
					"outputs": [
						{
							"internalType": "address",
							"name": "",
							"type": "address"
						}
					],
					"stateMutability": "view",
					"type": "function"
				},
				{
					"inputs": [],
					"name": "topBid",
					"outputs": [
						{
							"internalType": "uint256",
							"name": "",
							"type": "uint256"
						}
					],
					"stateMutability": "view",
					"type": "function"
				},
				{
					"inputs": [],
					"name": "withdrawBid",
					"outputs": [],
					"stateMutability": "nonpayable",
					"type": "function"
				}
			],
			"devdoc": {
				"details": "The contract uses a mapping to track withdrawable bids and includes reentrancy protection",
				"kind": "dev",
				"methods": {
					"constructor": {
						"details": "Sets the deployer as the master of the auction"
					},
					"endAuction()": {
						"details": "Only callable by masterImplements secure ETH transfer to master"
					},
					"getContractBalance()": {
						"details": "Useful for debugging and verification",
						"returns": {
							"_0": "uint256 Balance in wei"
						}
					},
					"getWithdrawableBid(address)": {
						"details": "Can be used by UI to show withdrawable amounts",
						"params": {
							"bidder": "Address to check for withdrawable bid"
						},
						"returns": {
							"_0": "uint256 Withdrawable amount in wei"
						}
					},
					"placeBid()": {
						"details": "Automatically stores previous top bid for withdrawalImplements bid verification and updates state"
					},
					"withdrawBid()": {
						"details": "Implements checks and reentrancy protectionUses low-level call for ETH transfer"
					}
				},
				"stateVariables": {
					"topAddress": {
						"details": "Master address that controls the auction"
					}
				},
				"title": "Auction Smart Contract",
				"version": 1
			},
			"evm": {
				"assembly": "    /* \"Auction.sol\":299:3853  contract Auction {\r... */\n  mstore(0x40, 0x80)\n    /* \"Auction.sol\":1484:1536  constructor() {\r... */\n  callvalue\n  dup1\n  iszero\n  tag_1\n  jumpi\n  0x00\n  dup1\n  revert\ntag_1:\n  pop\n    /* \"Auction.sol\":1518:1528  msg.sender */\n  caller\n    /* \"Auction.sol\":1509:1515  master */\n  0x00\n  dup1\n    /* \"Auction.sol\":1509:1528  master = msg.sender */\n  0x0100\n  exp\n  dup2\n  sload\n  dup2\n  0xffffffffffffffffffffffffffffffffffffffff\n  mul\n  not\n  and\n  swap1\n  dup4\n  0xffffffffffffffffffffffffffffffffffffffff\n  and\n  mul\n  or\n  swap1\n  sstore\n  pop\n    /* \"Auction.sol\":299:3853  contract Auction {\r... */\n  dataSize(sub_0)\n  dup1\n  dataOffset(sub_0)\n  0x00\n  codecopy\n  0x00\n  return\nstop\n\nsub_0: assembly {\n        /* \"Auction.sol\":299:3853  contract Auction {\r... */\n      mstore(0x40, 0x80)\n      jumpi(tag_1, lt(calldatasize, 0x04))\n      shr(0xe0, calldataload(0x00))\n      dup1\n      0x6f9fb98a\n      gt\n      tag_12\n      jumpi\n      dup1\n      0x6f9fb98a\n      eq\n      tag_7\n      jumpi\n      dup1\n      0xecb70fb7\n      eq\n      tag_8\n      jumpi\n      dup1\n      0xecfc7ecc\n      eq\n      tag_9\n      jumpi\n      dup1\n      0xee97f7f3\n      eq\n      tag_10\n      jumpi\n      dup1\n      0xfe67a54b\n      eq\n      tag_11\n      jumpi\n      jump(tag_1)\n    tag_12:\n      dup1\n      0x23539224\n      eq\n      tag_2\n      jumpi\n      dup1\n      0x37271cc7\n      eq\n      tag_3\n      jumpi\n      dup1\n      0x4c4caef7\n      eq\n      tag_4\n      jumpi\n      dup1\n      0x62ea82db\n      eq\n      tag_5\n      jumpi\n      dup1\n      0x636bf730\n      eq\n      tag_6\n      jumpi\n    tag_1:\n      0x00\n      dup1\n      revert\n        /* \"Auction.sol\":429:454  address public topAddress */\n    tag_2:\n      callvalue\n      dup1\n      iszero\n      tag_13\n      jumpi\n      0x00\n      dup1\n      revert\n    tag_13:\n      pop\n      tag_14\n      tag_15\n      jump\t// in\n    tag_14:\n      mload(0x40)\n      tag_16\n      swap2\n      swap1\n      tag_17\n      jump\t// in\n    tag_16:\n      mload(0x40)\n      dup1\n      swap2\n      sub\n      swap1\n      return\n        /* \"Auction.sol\":2430:2777  function withdrawBid() external {\r... */\n    tag_3:\n      callvalue\n      dup1\n      iszero\n      tag_18\n      jumpi\n      0x00\n      dup1\n      revert\n    tag_18:\n      pop\n      tag_19\n      tag_20\n      jump\t// in\n    tag_19:\n      stop\n        /* \"Auction.sol\":3738:3850  function getWithdrawableBid(address bidder) public view returns (uint256) {\r... */\n    tag_4:\n      callvalue\n      dup1\n      iszero\n      tag_21\n      jumpi\n      0x00\n      dup1\n      revert\n    tag_21:\n      pop\n      tag_22\n      0x04\n      dup1\n      calldatasize\n      sub\n      dup2\n      add\n      swap1\n      tag_23\n      swap2\n      swap1\n      tag_24\n      jump\t// in\n    tag_23:\n      tag_25\n      jump\t// in\n    tag_22:\n      mload(0x40)\n      tag_26\n      swap2\n      swap1\n      tag_27\n      jump\t// in\n    tag_26:\n      mload(0x40)\n      dup1\n      swap2\n      sub\n      swap1\n      return\n        /* \"Auction.sol\":640:679  mapping(address => uint256) public bids */\n    tag_5:\n      callvalue\n      dup1\n      iszero\n      tag_28\n      jumpi\n      0x00\n      dup1\n      revert\n    tag_28:\n      pop\n      tag_29\n      0x04\n      dup1\n      calldatasize\n      sub\n      dup2\n      add\n      swap1\n      tag_30\n      swap2\n      swap1\n      tag_24\n      jump\t// in\n    tag_30:\n      tag_31\n      jump\t// in\n    tag_29:\n      mload(0x40)\n      tag_32\n      swap2\n      swap1\n      tag_27\n      jump\t// in\n    tag_32:\n      mload(0x40)\n      dup1\n      swap2\n      sub\n      swap1\n      return\n        /* \"Auction.sol\":503:524  uint256 public topBid */\n    tag_6:\n      callvalue\n      dup1\n      iszero\n      tag_33\n      jumpi\n      0x00\n      dup1\n      revert\n    tag_33:\n      pop\n      tag_34\n      tag_35\n      jump\t// in\n    tag_34:\n      mload(0x40)\n      tag_36\n      swap2\n      swap1\n      tag_27\n      jump\t// in\n    tag_36:\n      mload(0x40)\n      dup1\n      swap2\n      sub\n      swap1\n      return\n        /* \"Auction.sol\":3376:3483  function getContractBalance() public view returns (uint256) {\r... */\n    tag_7:\n      callvalue\n      dup1\n      iszero\n      tag_37\n      jumpi\n      0x00\n      dup1\n      revert\n    tag_37:\n      pop\n      tag_38\n      tag_39\n      jump\t// in\n    tag_38:\n      mload(0x40)\n      tag_40\n      swap2\n      swap1\n      tag_27\n      jump\t// in\n    tag_40:\n      mload(0x40)\n      dup1\n      swap2\n      sub\n      swap1\n      return\n        /* \"Auction.sol\":569:589  bool public hasEnded */\n    tag_8:\n      callvalue\n      dup1\n      iszero\n      tag_41\n      jumpi\n      0x00\n      dup1\n      revert\n    tag_41:\n      pop\n      tag_42\n      tag_43\n      jump\t// in\n    tag_42:\n      mload(0x40)\n      tag_44\n      swap2\n      swap1\n      tag_45\n      jump\t// in\n    tag_44:\n      mload(0x40)\n      dup1\n      swap2\n      sub\n      swap1\n      return\n        /* \"Auction.sol\":1721:2248  function placeBid() external payable auctionActive {\r... */\n    tag_9:\n      tag_46\n      tag_47\n      jump\t// in\n    tag_46:\n      stop\n        /* \"Auction.sol\":351:372  address public master */\n    tag_10:\n      callvalue\n      dup1\n      iszero\n      tag_48\n      jumpi\n      0x00\n      dup1\n      revert\n    tag_48:\n      pop\n      tag_49\n      tag_50\n      jump\t// in\n    tag_49:\n      mload(0x40)\n      tag_51\n      swap2\n      swap1\n      tag_17\n      jump\t// in\n    tag_51:\n      mload(0x40)\n      dup1\n      swap2\n      sub\n      swap1\n      return\n        /* \"Auction.sol\":2952:3215  function endAuction() external onlyMaster auctionActive {\r... */\n    tag_11:\n      callvalue\n      dup1\n      iszero\n      tag_52\n      jumpi\n      0x00\n      dup1\n      revert\n    tag_52:\n      pop\n      tag_53\n      tag_54\n      jump\t// in\n    tag_53:\n      stop\n        /* \"Auction.sol\":429:454  address public topAddress */\n    tag_15:\n      0x01\n      0x00\n      swap1\n      sload\n      swap1\n      0x0100\n      exp\n      swap1\n      div\n      0xffffffffffffffffffffffffffffffffffffffff\n      and\n      dup2\n      jump\t// out\n        /* \"Auction.sol\":2430:2777  function withdrawBid() external {\r... */\n    tag_20:\n        /* \"Auction.sol\":2473:2487  uint256 amount */\n      0x00\n        /* \"Auction.sol\":2490:2494  bids */\n      0x04\n        /* \"Auction.sol\":2490:2506  bids[msg.sender] */\n      0x00\n        /* \"Auction.sol\":2495:2505  msg.sender */\n      caller\n        /* \"Auction.sol\":2490:2506  bids[msg.sender] */\n      0xffffffffffffffffffffffffffffffffffffffff\n      and\n      0xffffffffffffffffffffffffffffffffffffffff\n      and\n      dup2\n      mstore\n      0x20\n      add\n      swap1\n      dup2\n      mstore\n      0x20\n      add\n      0x00\n      keccak256\n      sload\n        /* \"Auction.sol\":2473:2506  uint256 amount = bids[msg.sender] */\n      swap1\n      pop\n        /* \"Auction.sol\":2534:2535  0 */\n      0x00\n        /* \"Auction.sol\":2525:2531  amount */\n      dup2\n        /* \"Auction.sol\":2525:2535  amount > 0 */\n      gt\n        /* \"Auction.sol\":2517:2568  require(amount > 0, \"No bid available to withdraw\") */\n      tag_56\n      jumpi\n      mload(0x40)\n      0x08c379a000000000000000000000000000000000000000000000000000000000\n      dup2\n      mstore\n      0x04\n      add\n      tag_57\n      swap1\n      tag_58\n      jump\t// in\n    tag_57:\n      mload(0x40)\n      dup1\n      swap2\n      sub\n      swap1\n      revert\n    tag_56:\n        /* \"Auction.sol\":2600:2601  0 */\n      0x00\n        /* \"Auction.sol\":2581:2585  bids */\n      0x04\n        /* \"Auction.sol\":2581:2597  bids[msg.sender] */\n      0x00\n        /* \"Auction.sol\":2586:2596  msg.sender */\n      caller\n        /* \"Auction.sol\":2581:2597  bids[msg.sender] */\n      0xffffffffffffffffffffffffffffffffffffffff\n      and\n      0xffffffffffffffffffffffffffffffffffffffff\n      and\n      dup2\n      mstore\n      0x20\n      add\n      swap1\n      dup2\n      mstore\n      0x20\n      add\n      0x00\n      keccak256\n        /* \"Auction.sol\":2581:2601  bids[msg.sender] = 0 */\n      dup2\n      swap1\n      sstore\n      pop\n        /* \"Auction.sol\":2615:2627  bool success */\n      0x00\n        /* \"Auction.sol\":2641:2651  msg.sender */\n      caller\n        /* \"Auction.sol\":2633:2657  payable(msg.sender).call */\n      0xffffffffffffffffffffffffffffffffffffffff\n      and\n        /* \"Auction.sol\":2665:2671  amount */\n      dup3\n        /* \"Auction.sol\":2633:2676  payable(msg.sender).call{value: amount}(\"\") */\n      mload(0x40)\n      tag_59\n      swap1\n      tag_60\n      jump\t// in\n    tag_59:\n      0x00\n      mload(0x40)\n      dup1\n      dup4\n      sub\n      dup2\n      dup6\n      dup8\n      gas\n      call\n      swap3\n      pop\n      pop\n      pop\n      returndatasize\n      dup1\n      0x00\n      dup2\n      eq\n      tag_63\n      jumpi\n      mload(0x40)\n      swap2\n      pop\n      and(add(returndatasize, 0x3f), not(0x1f))\n      dup3\n      add\n      0x40\n      mstore\n      returndatasize\n      dup3\n      mstore\n      returndatasize\n      0x00\n      0x20\n      dup5\n      add\n      returndatacopy\n      jump(tag_62)\n    tag_63:\n      0x60\n      swap2\n      pop\n    tag_62:\n      pop\n        /* \"Auction.sol\":2614:2676  (bool success, ) = payable(msg.sender).call{value: amount}(\"\") */\n      pop\n      swap1\n      pop\n        /* \"Auction.sol\":2695:2702  success */\n      dup1\n        /* \"Auction.sol\":2687:2722  require(success, \"Transfer failed\") */\n      tag_64\n      jumpi\n      mload(0x40)\n      0x08c379a000000000000000000000000000000000000000000000000000000000\n      dup2\n      mstore\n      0x04\n      add\n      tag_65\n      swap1\n      tag_66\n      jump\t// in\n    tag_65:\n      mload(0x40)\n      dup1\n      swap2\n      sub\n      swap1\n      revert\n    tag_64:\n        /* \"Auction.sol\":2750:2760  msg.sender */\n      caller\n        /* \"Auction.sol\":2740:2769  CancelBid(msg.sender, amount) */\n      0xffffffffffffffffffffffffffffffffffffffff\n      and\n      0x12606bee7a7a46f74b6b0466368de6d182b9bade27d591b3537fd0f6040c2825\n        /* \"Auction.sol\":2762:2768  amount */\n      dup4\n        /* \"Auction.sol\":2740:2769  CancelBid(msg.sender, amount) */\n      mload(0x40)\n      tag_67\n      swap2\n      swap1\n      tag_27\n      jump\t// in\n    tag_67:\n      mload(0x40)\n      dup1\n      swap2\n      sub\n      swap1\n      log2\n        /* \"Auction.sol\":2430:2777  function withdrawBid() external {\r... */\n      pop\n      pop\n      jump\t// out\n        /* \"Auction.sol\":3738:3850  function getWithdrawableBid(address bidder) public view returns (uint256) {\r... */\n    tag_25:\n        /* \"Auction.sol\":3803:3810  uint256 */\n      0x00\n        /* \"Auction.sol\":3830:3834  bids */\n      0x04\n        /* \"Auction.sol\":3830:3842  bids[bidder] */\n      0x00\n        /* \"Auction.sol\":3835:3841  bidder */\n      dup4\n        /* \"Auction.sol\":3830:3842  bids[bidder] */\n      0xffffffffffffffffffffffffffffffffffffffff\n      and\n      0xffffffffffffffffffffffffffffffffffffffff\n      and\n      dup2\n      mstore\n      0x20\n      add\n      swap1\n      dup2\n      mstore\n      0x20\n      add\n      0x00\n      keccak256\n      sload\n        /* \"Auction.sol\":3823:3842  return bids[bidder] */\n      swap1\n      pop\n        /* \"Auction.sol\":3738:3850  function getWithdrawableBid(address bidder) public view returns (uint256) {\r... */\n      swap2\n      swap1\n      pop\n      jump\t// out\n        /* \"Auction.sol\":640:679  mapping(address => uint256) public bids */\n    tag_31:\n      mstore(0x20, 0x04)\n      dup1\n      0x00\n      mstore\n      keccak256(0x00, 0x40)\n      0x00\n      swap2\n      pop\n      swap1\n      pop\n      sload\n      dup2\n      jump\t// out\n        /* \"Auction.sol\":503:524  uint256 public topBid */\n    tag_35:\n      sload(0x02)\n      dup2\n      jump\t// out\n        /* \"Auction.sol\":3376:3483  function getContractBalance() public view returns (uint256) {\r... */\n    tag_39:\n        /* \"Auction.sol\":3427:3434  uint256 */\n      0x00\n        /* \"Auction.sol\":3454:3475  address(this).balance */\n      selfbalance\n        /* \"Auction.sol\":3447:3475  return address(this).balance */\n      swap1\n      pop\n        /* \"Auction.sol\":3376:3483  function getContractBalance() public view returns (uint256) {\r... */\n      swap1\n      jump\t// out\n        /* \"Auction.sol\":569:589  bool public hasEnded */\n    tag_43:\n      0x03\n      0x00\n      swap1\n      sload\n      swap1\n      0x0100\n      exp\n      swap1\n      div\n      0xff\n      and\n      dup2\n      jump\t// out\n        /* \"Auction.sol\":1721:2248  function placeBid() external payable auctionActive {\r... */\n    tag_47:\n        /* \"Auction.sol\":1357:1365  hasEnded */\n      0x03\n      0x00\n      swap1\n      sload\n      swap1\n      0x0100\n      exp\n      swap1\n      div\n      0xff\n      and\n        /* \"Auction.sol\":1356:1365  !hasEnded */\n      iszero\n        /* \"Auction.sol\":1348:1395  require(!hasEnded, \"Auction has already ended\") */\n      tag_71\n      jumpi\n      mload(0x40)\n      0x08c379a000000000000000000000000000000000000000000000000000000000\n      dup2\n      mstore\n      0x04\n      add\n      tag_72\n      swap1\n      tag_73\n      jump\t// in\n    tag_72:\n      mload(0x40)\n      dup1\n      swap2\n      sub\n      swap1\n      revert\n    tag_71:\n        /* \"Auction.sol\":1803:1804  0 */\n      0x00\n        /* \"Auction.sol\":1791:1800  msg.value */\n      callvalue\n        /* \"Auction.sol\":1791:1804  msg.value > 0 */\n      gt\n        /* \"Auction.sol\":1783:1842  require(msg.value > 0, \"Bid amount must be greater than 0\") */\n      tag_75\n      jumpi\n      mload(0x40)\n      0x08c379a000000000000000000000000000000000000000000000000000000000\n      dup2\n      mstore\n      0x04\n      add\n      tag_76\n      swap1\n      tag_77\n      jump\t// in\n    tag_76:\n      mload(0x40)\n      dup1\n      swap2\n      sub\n      swap1\n      revert\n    tag_75:\n        /* \"Auction.sol\":1873:1879  topBid */\n      sload(0x02)\n        /* \"Auction.sol\":1861:1870  msg.value */\n      callvalue\n        /* \"Auction.sol\":1861:1879  msg.value > topBid */\n      gt\n        /* \"Auction.sol\":1853:1923  require(msg.value > topBid, \"Bid must be higher than current top bid\") */\n      tag_78\n      jumpi\n      mload(0x40)\n      0x08c379a000000000000000000000000000000000000000000000000000000000\n      dup2\n      mstore\n      0x04\n      add\n      tag_79\n      swap1\n      tag_80\n      jump\t// in\n    tag_79:\n      mload(0x40)\n      dup1\n      swap2\n      sub\n      swap1\n      revert\n    tag_78:\n        /* \"Auction.sol\":1936:1959  address previousAddress */\n      0x00\n        /* \"Auction.sol\":1962:1972  topAddress */\n      0x01\n      0x00\n      swap1\n      sload\n      swap1\n      0x0100\n      exp\n      swap1\n      div\n      0xffffffffffffffffffffffffffffffffffffffff\n      and\n        /* \"Auction.sol\":1936:1972  address previousAddress = topAddress */\n      swap1\n      pop\n        /* \"Auction.sol\":1983:2002  uint256 previousBid */\n      0x00\n        /* \"Auction.sol\":2005:2011  topBid */\n      sload(0x02)\n        /* \"Auction.sol\":1983:2011  uint256 previousBid = topBid */\n      swap1\n      pop\n        /* \"Auction.sol\":2033:2042  msg.value */\n      callvalue\n        /* \"Auction.sol\":2024:2030  topBid */\n      0x02\n        /* \"Auction.sol\":2024:2042  topBid = msg.value */\n      dup2\n      swap1\n      sstore\n      pop\n        /* \"Auction.sol\":2066:2076  msg.sender */\n      caller\n        /* \"Auction.sol\":2053:2063  topAddress */\n      0x01\n      0x00\n        /* \"Auction.sol\":2053:2076  topAddress = msg.sender */\n      0x0100\n      exp\n      dup2\n      sload\n      dup2\n      0xffffffffffffffffffffffffffffffffffffffff\n      mul\n      not\n      and\n      swap1\n      dup4\n      0xffffffffffffffffffffffffffffffffffffffff\n      and\n      mul\n      or\n      swap1\n      sstore\n      pop\n        /* \"Auction.sol\":2128:2129  0 */\n      0x00\n        /* \"Auction.sol\":2101:2130  previousAddress != address(0) */\n      0xffffffffffffffffffffffffffffffffffffffff\n      and\n        /* \"Auction.sol\":2101:2116  previousAddress */\n      dup3\n        /* \"Auction.sol\":2101:2130  previousAddress != address(0) */\n      0xffffffffffffffffffffffffffffffffffffffff\n      and\n      eq\n        /* \"Auction.sol\":2097:2194  if (previousAddress != address(0)) {\r... */\n      tag_81\n      jumpi\n        /* \"Auction.sol\":2171:2182  previousBid */\n      dup1\n        /* \"Auction.sol\":2147:2151  bids */\n      0x04\n        /* \"Auction.sol\":2147:2168  bids[previousAddress] */\n      0x00\n        /* \"Auction.sol\":2152:2167  previousAddress */\n      dup5\n        /* \"Auction.sol\":2147:2168  bids[previousAddress] */\n      0xffffffffffffffffffffffffffffffffffffffff\n      and\n      0xffffffffffffffffffffffffffffffffffffffff\n      and\n      dup2\n      mstore\n      0x20\n      add\n      swap1\n      dup2\n      mstore\n      0x20\n      add\n      0x00\n      keccak256\n        /* \"Auction.sol\":2147:2182  bids[previousAddress] = previousBid */\n      dup2\n      swap1\n      sstore\n      pop\n        /* \"Auction.sol\":2097:2194  if (previousAddress != address(0)) {\r... */\n    tag_81:\n        /* \"Auction.sol\":2218:2228  msg.sender */\n      caller\n        /* \"Auction.sol\":2211:2240  NewBid(msg.sender, msg.value) */\n      0xffffffffffffffffffffffffffffffffffffffff\n      and\n      0xdd0b6c6a77960e2066c96171b4d7ac9e8b4c184011f38544afa36a5bb63ec59f\n        /* \"Auction.sol\":2230:2239  msg.value */\n      callvalue\n        /* \"Auction.sol\":2211:2240  NewBid(msg.sender, msg.value) */\n      mload(0x40)\n      tag_82\n      swap2\n      swap1\n      tag_27\n      jump\t// in\n    tag_82:\n      mload(0x40)\n      dup1\n      swap2\n      sub\n      swap1\n      log2\n        /* \"Auction.sol\":1406:1407  _ */\n      pop\n      pop\n        /* \"Auction.sol\":1721:2248  function placeBid() external payable auctionActive {\r... */\n      jump\t// out\n        /* \"Auction.sol\":351:372  address public master */\n    tag_50:\n      0x00\n      dup1\n      sload\n      swap1\n      0x0100\n      exp\n      swap1\n      div\n      0xffffffffffffffffffffffffffffffffffffffff\n      and\n      dup2\n      jump\t// out\n        /* \"Auction.sol\":2952:3215  function endAuction() external onlyMaster auctionActive {\r... */\n    tag_54:\n        /* \"Auction.sol\":1189:1195  master */\n      0x00\n      dup1\n      sload\n      swap1\n      0x0100\n      exp\n      swap1\n      div\n      0xffffffffffffffffffffffffffffffffffffffff\n      and\n        /* \"Auction.sol\":1175:1195  msg.sender == master */\n      0xffffffffffffffffffffffffffffffffffffffff\n      and\n        /* \"Auction.sol\":1175:1185  msg.sender */\n      caller\n        /* \"Auction.sol\":1175:1195  msg.sender == master */\n      0xffffffffffffffffffffffffffffffffffffffff\n      and\n      eq\n        /* \"Auction.sol\":1167:1234  require(msg.sender == master, \"Only master can call this function\") */\n      tag_84\n      jumpi\n      mload(0x40)\n      0x08c379a000000000000000000000000000000000000000000000000000000000\n      dup2\n      mstore\n      0x04\n      add\n      tag_85\n      swap1\n      tag_86\n      jump\t// in\n    tag_85:\n      mload(0x40)\n      dup1\n      swap2\n      sub\n      swap1\n      revert\n    tag_84:\n        /* \"Auction.sol\":1357:1365  hasEnded */\n      0x03\n      0x00\n      swap1\n      sload\n      swap1\n      0x0100\n      exp\n      swap1\n      div\n      0xff\n      and\n        /* \"Auction.sol\":1356:1365  !hasEnded */\n      iszero\n        /* \"Auction.sol\":1348:1395  require(!hasEnded, \"Auction has already ended\") */\n      tag_88\n      jumpi\n      mload(0x40)\n      0x08c379a000000000000000000000000000000000000000000000000000000000\n      dup2\n      mstore\n      0x04\n      add\n      tag_89\n      swap1\n      tag_73\n      jump\t// in\n    tag_89:\n      mload(0x40)\n      dup1\n      swap2\n      sub\n      swap1\n      revert\n    tag_88:\n        /* \"Auction.sol\":3030:3034  true */\n      0x01\n        /* \"Auction.sol\":3019:3027  hasEnded */\n      0x03\n      0x00\n        /* \"Auction.sol\":3019:3034  hasEnded = true */\n      0x0100\n      exp\n      dup2\n      sload\n      dup2\n      0xff\n      mul\n      not\n      and\n      swap1\n      dup4\n      iszero\n      iszero\n      mul\n      or\n      swap1\n      sstore\n      pop\n        /* \"Auction.sol\":3050:3082  AuctionEnded(topAddress, topBid) */\n      0xdaec4582d5d9595688c8c98545fdd1c696d41c6aeaeb636737e84ed2f5c00eda\n        /* \"Auction.sol\":3063:3073  topAddress */\n      0x01\n      0x00\n      swap1\n      sload\n      swap1\n      0x0100\n      exp\n      swap1\n      div\n      0xffffffffffffffffffffffffffffffffffffffff\n      and\n        /* \"Auction.sol\":3075:3081  topBid */\n      sload(0x02)\n        /* \"Auction.sol\":3050:3082  AuctionEnded(topAddress, topBid) */\n      mload(0x40)\n      tag_91\n      swap3\n      swap2\n      swap1\n      tag_92\n      jump\t// in\n    tag_91:\n      mload(0x40)\n      dup1\n      swap2\n      sub\n      swap1\n      log1\n        /* \"Auction.sol\":3104:3116  bool success */\n      0x00\n        /* \"Auction.sol\":3130:3136  master */\n      dup1\n      0x00\n      swap1\n      sload\n      swap1\n      0x0100\n      exp\n      swap1\n      div\n      0xffffffffffffffffffffffffffffffffffffffff\n      and\n        /* \"Auction.sol\":3122:3142  payable(master).call */\n      0xffffffffffffffffffffffffffffffffffffffff\n      and\n        /* \"Auction.sol\":3150:3156  topBid */\n      sload(0x02)\n        /* \"Auction.sol\":3122:3161  payable(master).call{value: topBid}(\"\") */\n      mload(0x40)\n      tag_93\n      swap1\n      tag_60\n      jump\t// in\n    tag_93:\n      0x00\n      mload(0x40)\n      dup1\n      dup4\n      sub\n      dup2\n      dup6\n      dup8\n      gas\n      call\n      swap3\n      pop\n      pop\n      pop\n      returndatasize\n      dup1\n      0x00\n      dup2\n      eq\n      tag_96\n      jumpi\n      mload(0x40)\n      swap2\n      pop\n      and(add(returndatasize, 0x3f), not(0x1f))\n      dup3\n      add\n      0x40\n      mstore\n      returndatasize\n      dup3\n      mstore\n      returndatasize\n      0x00\n      0x20\n      dup5\n      add\n      returndatacopy\n      jump(tag_95)\n    tag_96:\n      0x60\n      swap2\n      pop\n    tag_95:\n      pop\n        /* \"Auction.sol\":3103:3161  (bool success, ) = payable(master).call{value: topBid}(\"\") */\n      pop\n      swap1\n      pop\n        /* \"Auction.sol\":3180:3187  success */\n      dup1\n        /* \"Auction.sol\":3172:3207  require(success, \"Transfer failed\") */\n      tag_97\n      jumpi\n      mload(0x40)\n      0x08c379a000000000000000000000000000000000000000000000000000000000\n      dup2\n      mstore\n      0x04\n      add\n      tag_98\n      swap1\n      tag_66\n      jump\t// in\n    tag_98:\n      mload(0x40)\n      dup1\n      swap2\n      sub\n      swap1\n      revert\n    tag_97:\n        /* \"Auction.sol\":1406:1407  _ */\n      pop\n        /* \"Auction.sol\":2952:3215  function endAuction() external onlyMaster auctionActive {\r... */\n      jump\t// out\n        /* \"#utility.yul\":7:146   */\n    tag_100:\n      0x00\n        /* \"#utility.yul\":91:97   */\n      dup2\n        /* \"#utility.yul\":78:98   */\n      calldataload\n        /* \"#utility.yul\":69:98   */\n      swap1\n      pop\n        /* \"#utility.yul\":107:140   */\n      tag_102\n        /* \"#utility.yul\":134:139   */\n      dup2\n        /* \"#utility.yul\":107:140   */\n      tag_103\n      jump\t// in\n    tag_102:\n        /* \"#utility.yul\":59:146   */\n      swap3\n      swap2\n      pop\n      pop\n      jump\t// out\n        /* \"#utility.yul\":152:414   */\n    tag_24:\n      0x00\n        /* \"#utility.yul\":260:262   */\n      0x20\n        /* \"#utility.yul\":248:257   */\n      dup3\n        /* \"#utility.yul\":239:246   */\n      dup5\n        /* \"#utility.yul\":235:258   */\n      sub\n        /* \"#utility.yul\":231:263   */\n      slt\n        /* \"#utility.yul\":228:230   */\n      iszero\n      tag_105\n      jumpi\n        /* \"#utility.yul\":276:277   */\n      0x00\n        /* \"#utility.yul\":273:274   */\n      dup1\n        /* \"#utility.yul\":266:278   */\n      revert\n        /* \"#utility.yul\":228:230   */\n    tag_105:\n        /* \"#utility.yul\":319:320   */\n      0x00\n        /* \"#utility.yul\":344:397   */\n      tag_106\n        /* \"#utility.yul\":389:396   */\n      dup5\n        /* \"#utility.yul\":380:386   */\n      dup3\n        /* \"#utility.yul\":369:378   */\n      dup6\n        /* \"#utility.yul\":365:387   */\n      add\n        /* \"#utility.yul\":344:397   */\n      tag_100\n      jump\t// in\n    tag_106:\n        /* \"#utility.yul\":334:397   */\n      swap2\n      pop\n        /* \"#utility.yul\":290:407   */\n      pop\n        /* \"#utility.yul\":218:414   */\n      swap3\n      swap2\n      pop\n      pop\n      jump\t// out\n        /* \"#utility.yul\":420:538   */\n    tag_107:\n        /* \"#utility.yul\":507:531   */\n      tag_109\n        /* \"#utility.yul\":525:530   */\n      dup2\n        /* \"#utility.yul\":507:531   */\n      tag_110\n      jump\t// in\n    tag_109:\n        /* \"#utility.yul\":502:505   */\n      dup3\n        /* \"#utility.yul\":495:532   */\n      mstore\n        /* \"#utility.yul\":485:538   */\n      pop\n      pop\n      jump\t// out\n        /* \"#utility.yul\":544:653   */\n    tag_111:\n        /* \"#utility.yul\":625:646   */\n      tag_113\n        /* \"#utility.yul\":640:645   */\n      dup2\n        /* \"#utility.yul\":625:646   */\n      tag_114\n      jump\t// in\n    tag_113:\n        /* \"#utility.yul\":620:623   */\n      dup3\n        /* \"#utility.yul\":613:647   */\n      mstore\n        /* \"#utility.yul\":603:653   */\n      pop\n      pop\n      jump\t// out\n        /* \"#utility.yul\":659:972   */\n    tag_115:\n      0x00\n        /* \"#utility.yul\":822:889   */\n      tag_117\n        /* \"#utility.yul\":886:888   */\n      0x0f\n        /* \"#utility.yul\":881:884   */\n      dup4\n        /* \"#utility.yul\":822:889   */\n      tag_118\n      jump\t// in\n    tag_117:\n        /* \"#utility.yul\":815:889   */\n      swap2\n      pop\n        /* \"#utility.yul\":919:936   */\n      0x5472616e73666572206661696c65640000000000000000000000000000000000\n        /* \"#utility.yul\":915:916   */\n      0x00\n        /* \"#utility.yul\":910:913   */\n      dup4\n        /* \"#utility.yul\":906:917   */\n      add\n        /* \"#utility.yul\":899:937   */\n      mstore\n        /* \"#utility.yul\":963:965   */\n      0x20\n        /* \"#utility.yul\":958:961   */\n      dup3\n        /* \"#utility.yul\":954:966   */\n      add\n        /* \"#utility.yul\":947:966   */\n      swap1\n      pop\n        /* \"#utility.yul\":805:972   */\n      swap2\n      swap1\n      pop\n      jump\t// out\n        /* \"#utility.yul\":978:1301   */\n    tag_119:\n      0x00\n        /* \"#utility.yul\":1141:1208   */\n      tag_121\n        /* \"#utility.yul\":1205:1207   */\n      0x19\n        /* \"#utility.yul\":1200:1203   */\n      dup4\n        /* \"#utility.yul\":1141:1208   */\n      tag_118\n      jump\t// in\n    tag_121:\n        /* \"#utility.yul\":1134:1208   */\n      swap2\n      pop\n        /* \"#utility.yul\":1238:1265   */\n      0x41756374696f6e2068617320616c726561647920656e64656400000000000000\n        /* \"#utility.yul\":1234:1235   */\n      0x00\n        /* \"#utility.yul\":1229:1232   */\n      dup4\n        /* \"#utility.yul\":1225:1236   */\n      add\n        /* \"#utility.yul\":1218:1266   */\n      mstore\n        /* \"#utility.yul\":1292:1294   */\n      0x20\n        /* \"#utility.yul\":1287:1290   */\n      dup3\n        /* \"#utility.yul\":1283:1295   */\n      add\n        /* \"#utility.yul\":1276:1295   */\n      swap1\n      pop\n        /* \"#utility.yul\":1124:1301   */\n      swap2\n      swap1\n      pop\n      jump\t// out\n        /* \"#utility.yul\":1307:1672   */\n    tag_122:\n      0x00\n        /* \"#utility.yul\":1470:1537   */\n      tag_124\n        /* \"#utility.yul\":1534:1536   */\n      0x21\n        /* \"#utility.yul\":1529:1532   */\n      dup4\n        /* \"#utility.yul\":1470:1537   */\n      tag_118\n      jump\t// in\n    tag_124:\n        /* \"#utility.yul\":1463:1537   */\n      swap2\n      pop\n        /* \"#utility.yul\":1567:1601   */\n      0x42696420616d6f756e74206d7573742062652067726561746572207468616e20\n        /* \"#utility.yul\":1563:1564   */\n      0x00\n        /* \"#utility.yul\":1558:1561   */\n      dup4\n        /* \"#utility.yul\":1554:1565   */\n      add\n        /* \"#utility.yul\":1547:1602   */\n      mstore\n        /* \"#utility.yul\":1633:1636   */\n      0x3000000000000000000000000000000000000000000000000000000000000000\n        /* \"#utility.yul\":1628:1630   */\n      0x20\n        /* \"#utility.yul\":1623:1626   */\n      dup4\n        /* \"#utility.yul\":1619:1631   */\n      add\n        /* \"#utility.yul\":1612:1637   */\n      mstore\n        /* \"#utility.yul\":1663:1665   */\n      0x40\n        /* \"#utility.yul\":1658:1661   */\n      dup3\n        /* \"#utility.yul\":1654:1666   */\n      add\n        /* \"#utility.yul\":1647:1666   */\n      swap1\n      pop\n        /* \"#utility.yul\":1453:1672   */\n      swap2\n      swap1\n      pop\n      jump\t// out\n        /* \"#utility.yul\":1678:2049   */\n    tag_125:\n      0x00\n        /* \"#utility.yul\":1841:1908   */\n      tag_127\n        /* \"#utility.yul\":1905:1907   */\n      0x27\n        /* \"#utility.yul\":1900:1903   */\n      dup4\n        /* \"#utility.yul\":1841:1908   */\n      tag_118\n      jump\t// in\n    tag_127:\n        /* \"#utility.yul\":1834:1908   */\n      swap2\n      pop\n        /* \"#utility.yul\":1938:1972   */\n      0x426964206d75737420626520686967686572207468616e2063757272656e7420\n        /* \"#utility.yul\":1934:1935   */\n      0x00\n        /* \"#utility.yul\":1929:1932   */\n      dup4\n        /* \"#utility.yul\":1925:1936   */\n      add\n        /* \"#utility.yul\":1918:1973   */\n      mstore\n        /* \"#utility.yul\":2004:2013   */\n      0x746f702062696400000000000000000000000000000000000000000000000000\n        /* \"#utility.yul\":1999:2001   */\n      0x20\n        /* \"#utility.yul\":1994:1997   */\n      dup4\n        /* \"#utility.yul\":1990:2002   */\n      add\n        /* \"#utility.yul\":1983:2014   */\n      mstore\n        /* \"#utility.yul\":2040:2042   */\n      0x40\n        /* \"#utility.yul\":2035:2038   */\n      dup3\n        /* \"#utility.yul\":2031:2043   */\n      add\n        /* \"#utility.yul\":2024:2043   */\n      swap1\n      pop\n        /* \"#utility.yul\":1824:2049   */\n      swap2\n      swap1\n      pop\n      jump\t// out\n        /* \"#utility.yul\":2055:2421   */\n    tag_128:\n      0x00\n        /* \"#utility.yul\":2218:2285   */\n      tag_130\n        /* \"#utility.yul\":2282:2284   */\n      0x22\n        /* \"#utility.yul\":2277:2280   */\n      dup4\n        /* \"#utility.yul\":2218:2285   */\n      tag_118\n      jump\t// in\n    tag_130:\n        /* \"#utility.yul\":2211:2285   */\n      swap2\n      pop\n        /* \"#utility.yul\":2315:2349   */\n      0x4f6e6c79206d61737465722063616e2063616c6c20746869732066756e637469\n        /* \"#utility.yul\":2311:2312   */\n      0x00\n        /* \"#utility.yul\":2306:2309   */\n      dup4\n        /* \"#utility.yul\":2302:2313   */\n      add\n        /* \"#utility.yul\":2295:2350   */\n      mstore\n        /* \"#utility.yul\":2381:2385   */\n      0x6f6e000000000000000000000000000000000000000000000000000000000000\n        /* \"#utility.yul\":2376:2378   */\n      0x20\n        /* \"#utility.yul\":2371:2374   */\n      dup4\n        /* \"#utility.yul\":2367:2379   */\n      add\n        /* \"#utility.yul\":2360:2386   */\n      mstore\n        /* \"#utility.yul\":2412:2414   */\n      0x40\n        /* \"#utility.yul\":2407:2410   */\n      dup3\n        /* \"#utility.yul\":2403:2415   */\n      add\n        /* \"#utility.yul\":2396:2415   */\n      swap1\n      pop\n        /* \"#utility.yul\":2201:2421   */\n      swap2\n      swap1\n      pop\n      jump\t// out\n        /* \"#utility.yul\":2427:2753   */\n    tag_131:\n      0x00\n        /* \"#utility.yul\":2590:2657   */\n      tag_133\n        /* \"#utility.yul\":2654:2656   */\n      0x1c\n        /* \"#utility.yul\":2649:2652   */\n      dup4\n        /* \"#utility.yul\":2590:2657   */\n      tag_118\n      jump\t// in\n    tag_133:\n        /* \"#utility.yul\":2583:2657   */\n      swap2\n      pop\n        /* \"#utility.yul\":2687:2717   */\n      0x4e6f2062696420617661696c61626c6520746f20776974686472617700000000\n        /* \"#utility.yul\":2683:2684   */\n      0x00\n        /* \"#utility.yul\":2678:2681   */\n      dup4\n        /* \"#utility.yul\":2674:2685   */\n      add\n        /* \"#utility.yul\":2667:2718   */\n      mstore\n        /* \"#utility.yul\":2744:2746   */\n      0x20\n        /* \"#utility.yul\":2739:2742   */\n      dup3\n        /* \"#utility.yul\":2735:2747   */\n      add\n        /* \"#utility.yul\":2728:2747   */\n      swap1\n      pop\n        /* \"#utility.yul\":2573:2753   */\n      swap2\n      swap1\n      pop\n      jump\t// out\n        /* \"#utility.yul\":2759:3056   */\n    tag_134:\n      0x00\n        /* \"#utility.yul\":2939:3022   */\n      tag_136\n        /* \"#utility.yul\":3020:3021   */\n      0x00\n        /* \"#utility.yul\":3015:3018   */\n      dup4\n        /* \"#utility.yul\":2939:3022   */\n      tag_137\n      jump\t// in\n    tag_136:\n        /* \"#utility.yul\":2932:3022   */\n      swap2\n      pop\n        /* \"#utility.yul\":3048:3049   */\n      0x00\n        /* \"#utility.yul\":3043:3046   */\n      dup3\n        /* \"#utility.yul\":3039:3050   */\n      add\n        /* \"#utility.yul\":3032:3050   */\n      swap1\n      pop\n        /* \"#utility.yul\":2922:3056   */\n      swap2\n      swap1\n      pop\n      jump\t// out\n        /* \"#utility.yul\":3062:3180   */\n    tag_138:\n        /* \"#utility.yul\":3149:3173   */\n      tag_140\n        /* \"#utility.yul\":3167:3172   */\n      dup2\n        /* \"#utility.yul\":3149:3173   */\n      tag_141\n      jump\t// in\n    tag_140:\n        /* \"#utility.yul\":3144:3147   */\n      dup3\n        /* \"#utility.yul\":3137:3174   */\n      mstore\n        /* \"#utility.yul\":3127:3180   */\n      pop\n      pop\n      jump\t// out\n        /* \"#utility.yul\":3186:3565   */\n    tag_60:\n      0x00\n        /* \"#utility.yul\":3392:3539   */\n      tag_143\n        /* \"#utility.yul\":3535:3538   */\n      dup3\n        /* \"#utility.yul\":3392:3539   */\n      tag_134\n      jump\t// in\n    tag_143:\n        /* \"#utility.yul\":3385:3539   */\n      swap2\n      pop\n        /* \"#utility.yul\":3556:3559   */\n      dup2\n        /* \"#utility.yul\":3549:3559   */\n      swap1\n      pop\n        /* \"#utility.yul\":3374:3565   */\n      swap2\n      swap1\n      pop\n      jump\t// out\n        /* \"#utility.yul\":3571:3793   */\n    tag_17:\n      0x00\n        /* \"#utility.yul\":3702:3704   */\n      0x20\n        /* \"#utility.yul\":3691:3700   */\n      dup3\n        /* \"#utility.yul\":3687:3705   */\n      add\n        /* \"#utility.yul\":3679:3705   */\n      swap1\n      pop\n        /* \"#utility.yul\":3715:3786   */\n      tag_145\n        /* \"#utility.yul\":3783:3784   */\n      0x00\n        /* \"#utility.yul\":3772:3781   */\n      dup4\n        /* \"#utility.yul\":3768:3785   */\n      add\n        /* \"#utility.yul\":3759:3765   */\n      dup5\n        /* \"#utility.yul\":3715:3786   */\n      tag_107\n      jump\t// in\n    tag_145:\n        /* \"#utility.yul\":3669:3793   */\n      swap3\n      swap2\n      pop\n      pop\n      jump\t// out\n        /* \"#utility.yul\":3799:4131   */\n    tag_92:\n      0x00\n        /* \"#utility.yul\":3958:3960   */\n      0x40\n        /* \"#utility.yul\":3947:3956   */\n      dup3\n        /* \"#utility.yul\":3943:3961   */\n      add\n        /* \"#utility.yul\":3935:3961   */\n      swap1\n      pop\n        /* \"#utility.yul\":3971:4042   */\n      tag_147\n        /* \"#utility.yul\":4039:4040   */\n      0x00\n        /* \"#utility.yul\":4028:4037   */\n      dup4\n        /* \"#utility.yul\":4024:4041   */\n      add\n        /* \"#utility.yul\":4015:4021   */\n      dup6\n        /* \"#utility.yul\":3971:4042   */\n      tag_107\n      jump\t// in\n    tag_147:\n        /* \"#utility.yul\":4052:4124   */\n      tag_148\n        /* \"#utility.yul\":4120:4122   */\n      0x20\n        /* \"#utility.yul\":4109:4118   */\n      dup4\n        /* \"#utility.yul\":4105:4123   */\n      add\n        /* \"#utility.yul\":4096:4102   */\n      dup5\n        /* \"#utility.yul\":4052:4124   */\n      tag_138\n      jump\t// in\n    tag_148:\n        /* \"#utility.yul\":3925:4131   */\n      swap4\n      swap3\n      pop\n      pop\n      pop\n      jump\t// out\n        /* \"#utility.yul\":4137:4347   */\n    tag_45:\n      0x00\n        /* \"#utility.yul\":4262:4264   */\n      0x20\n        /* \"#utility.yul\":4251:4260   */\n      dup3\n        /* \"#utility.yul\":4247:4265   */\n      add\n        /* \"#utility.yul\":4239:4265   */\n      swap1\n      pop\n        /* \"#utility.yul\":4275:4340   */\n      tag_150\n        /* \"#utility.yul\":4337:4338   */\n      0x00\n        /* \"#utility.yul\":4326:4335   */\n      dup4\n        /* \"#utility.yul\":4322:4339   */\n      add\n        /* \"#utility.yul\":4313:4319   */\n      dup5\n        /* \"#utility.yul\":4275:4340   */\n      tag_111\n      jump\t// in\n    tag_150:\n        /* \"#utility.yul\":4229:4347   */\n      swap3\n      swap2\n      pop\n      pop\n      jump\t// out\n        /* \"#utility.yul\":4353:4772   */\n    tag_66:\n      0x00\n        /* \"#utility.yul\":4557:4559   */\n      0x20\n        /* \"#utility.yul\":4546:4555   */\n      dup3\n        /* \"#utility.yul\":4542:4560   */\n      add\n        /* \"#utility.yul\":4534:4560   */\n      swap1\n      pop\n        /* \"#utility.yul\":4606:4615   */\n      dup2\n        /* \"#utility.yul\":4600:4604   */\n      dup2\n        /* \"#utility.yul\":4596:4616   */\n      sub\n        /* \"#utility.yul\":4592:4593   */\n      0x00\n        /* \"#utility.yul\":4581:4590   */\n      dup4\n        /* \"#utility.yul\":4577:4594   */\n      add\n        /* \"#utility.yul\":4570:4617   */\n      mstore\n        /* \"#utility.yul\":4634:4765   */\n      tag_152\n        /* \"#utility.yul\":4760:4764   */\n      dup2\n        /* \"#utility.yul\":4634:4765   */\n      tag_115\n      jump\t// in\n    tag_152:\n        /* \"#utility.yul\":4626:4765   */\n      swap1\n      pop\n        /* \"#utility.yul\":4524:4772   */\n      swap2\n      swap1\n      pop\n      jump\t// out\n        /* \"#utility.yul\":4778:5197   */\n    tag_73:\n      0x00\n        /* \"#utility.yul\":4982:4984   */\n      0x20\n        /* \"#utility.yul\":4971:4980   */\n      dup3\n        /* \"#utility.yul\":4967:4985   */\n      add\n        /* \"#utility.yul\":4959:4985   */\n      swap1\n      pop\n        /* \"#utility.yul\":5031:5040   */\n      dup2\n        /* \"#utility.yul\":5025:5029   */\n      dup2\n        /* \"#utility.yul\":5021:5041   */\n      sub\n        /* \"#utility.yul\":5017:5018   */\n      0x00\n        /* \"#utility.yul\":5006:5015   */\n      dup4\n        /* \"#utility.yul\":5002:5019   */\n      add\n        /* \"#utility.yul\":4995:5042   */\n      mstore\n        /* \"#utility.yul\":5059:5190   */\n      tag_154\n        /* \"#utility.yul\":5185:5189   */\n      dup2\n        /* \"#utility.yul\":5059:5190   */\n      tag_119\n      jump\t// in\n    tag_154:\n        /* \"#utility.yul\":5051:5190   */\n      swap1\n      pop\n        /* \"#utility.yul\":4949:5197   */\n      swap2\n      swap1\n      pop\n      jump\t// out\n        /* \"#utility.yul\":5203:5622   */\n    tag_77:\n      0x00\n        /* \"#utility.yul\":5407:5409   */\n      0x20\n        /* \"#utility.yul\":5396:5405   */\n      dup3\n        /* \"#utility.yul\":5392:5410   */\n      add\n        /* \"#utility.yul\":5384:5410   */\n      swap1\n      pop\n        /* \"#utility.yul\":5456:5465   */\n      dup2\n        /* \"#utility.yul\":5450:5454   */\n      dup2\n        /* \"#utility.yul\":5446:5466   */\n      sub\n        /* \"#utility.yul\":5442:5443   */\n      0x00\n        /* \"#utility.yul\":5431:5440   */\n      dup4\n        /* \"#utility.yul\":5427:5444   */\n      add\n        /* \"#utility.yul\":5420:5467   */\n      mstore\n        /* \"#utility.yul\":5484:5615   */\n      tag_156\n        /* \"#utility.yul\":5610:5614   */\n      dup2\n        /* \"#utility.yul\":5484:5615   */\n      tag_122\n      jump\t// in\n    tag_156:\n        /* \"#utility.yul\":5476:5615   */\n      swap1\n      pop\n        /* \"#utility.yul\":5374:5622   */\n      swap2\n      swap1\n      pop\n      jump\t// out\n        /* \"#utility.yul\":5628:6047   */\n    tag_80:\n      0x00\n        /* \"#utility.yul\":5832:5834   */\n      0x20\n        /* \"#utility.yul\":5821:5830   */\n      dup3\n        /* \"#utility.yul\":5817:5835   */\n      add\n        /* \"#utility.yul\":5809:5835   */\n      swap1\n      pop\n        /* \"#utility.yul\":5881:5890   */\n      dup2\n        /* \"#utility.yul\":5875:5879   */\n      dup2\n        /* \"#utility.yul\":5871:5891   */\n      sub\n        /* \"#utility.yul\":5867:5868   */\n      0x00\n        /* \"#utility.yul\":5856:5865   */\n      dup4\n        /* \"#utility.yul\":5852:5869   */\n      add\n        /* \"#utility.yul\":5845:5892   */\n      mstore\n        /* \"#utility.yul\":5909:6040   */\n      tag_158\n        /* \"#utility.yul\":6035:6039   */\n      dup2\n        /* \"#utility.yul\":5909:6040   */\n      tag_125\n      jump\t// in\n    tag_158:\n        /* \"#utility.yul\":5901:6040   */\n      swap1\n      pop\n        /* \"#utility.yul\":5799:6047   */\n      swap2\n      swap1\n      pop\n      jump\t// out\n        /* \"#utility.yul\":6053:6472   */\n    tag_86:\n      0x00\n        /* \"#utility.yul\":6257:6259   */\n      0x20\n        /* \"#utility.yul\":6246:6255   */\n      dup3\n        /* \"#utility.yul\":6242:6260   */\n      add\n        /* \"#utility.yul\":6234:6260   */\n      swap1\n      pop\n        /* \"#utility.yul\":6306:6315   */\n      dup2\n        /* \"#utility.yul\":6300:6304   */\n      dup2\n        /* \"#utility.yul\":6296:6316   */\n      sub\n        /* \"#utility.yul\":6292:6293   */\n      0x00\n        /* \"#utility.yul\":6281:6290   */\n      dup4\n        /* \"#utility.yul\":6277:6294   */\n      add\n        /* \"#utility.yul\":6270:6317   */\n      mstore\n        /* \"#utility.yul\":6334:6465   */\n      tag_160\n        /* \"#utility.yul\":6460:6464   */\n      dup2\n        /* \"#utility.yul\":6334:6465   */\n      tag_128\n      jump\t// in\n    tag_160:\n        /* \"#utility.yul\":6326:6465   */\n      swap1\n      pop\n        /* \"#utility.yul\":6224:6472   */\n      swap2\n      swap1\n      pop\n      jump\t// out\n        /* \"#utility.yul\":6478:6897   */\n    tag_58:\n      0x00\n        /* \"#utility.yul\":6682:6684   */\n      0x20\n        /* \"#utility.yul\":6671:6680   */\n      dup3\n        /* \"#utility.yul\":6667:6685   */\n      add\n        /* \"#utility.yul\":6659:6685   */\n      swap1\n      pop\n        /* \"#utility.yul\":6731:6740   */\n      dup2\n        /* \"#utility.yul\":6725:6729   */\n      dup2\n        /* \"#utility.yul\":6721:6741   */\n      sub\n        /* \"#utility.yul\":6717:6718   */\n      0x00\n        /* \"#utility.yul\":6706:6715   */\n      dup4\n        /* \"#utility.yul\":6702:6719   */\n      add\n        /* \"#utility.yul\":6695:6742   */\n      mstore\n        /* \"#utility.yul\":6759:6890   */\n      tag_162\n        /* \"#utility.yul\":6885:6889   */\n      dup2\n        /* \"#utility.yul\":6759:6890   */\n      tag_131\n      jump\t// in\n    tag_162:\n        /* \"#utility.yul\":6751:6890   */\n      swap1\n      pop\n        /* \"#utility.yul\":6649:6897   */\n      swap2\n      swap1\n      pop\n      jump\t// out\n        /* \"#utility.yul\":6903:7125   */\n    tag_27:\n      0x00\n        /* \"#utility.yul\":7034:7036   */\n      0x20\n        /* \"#utility.yul\":7023:7032   */\n      dup3\n        /* \"#utility.yul\":7019:7037   */\n      add\n        /* \"#utility.yul\":7011:7037   */\n      swap1\n      pop\n        /* \"#utility.yul\":7047:7118   */\n      tag_164\n        /* \"#utility.yul\":7115:7116   */\n      0x00\n        /* \"#utility.yul\":7104:7113   */\n      dup4\n        /* \"#utility.yul\":7100:7117   */\n      add\n        /* \"#utility.yul\":7091:7097   */\n      dup5\n        /* \"#utility.yul\":7047:7118   */\n      tag_138\n      jump\t// in\n    tag_164:\n        /* \"#utility.yul\":7001:7125   */\n      swap3\n      swap2\n      pop\n      pop\n      jump\t// out\n        /* \"#utility.yul\":7131:7278   */\n    tag_137:\n      0x00\n        /* \"#utility.yul\":7269:7272   */\n      dup2\n        /* \"#utility.yul\":7254:7272   */\n      swap1\n      pop\n        /* \"#utility.yul\":7244:7278   */\n      swap3\n      swap2\n      pop\n      pop\n      jump\t// out\n        /* \"#utility.yul\":7284:7453   */\n    tag_118:\n      0x00\n        /* \"#utility.yul\":7402:7408   */\n      dup3\n        /* \"#utility.yul\":7397:7400   */\n      dup3\n        /* \"#utility.yul\":7390:7409   */\n      mstore\n        /* \"#utility.yul\":7442:7446   */\n      0x20\n        /* \"#utility.yul\":7437:7440   */\n      dup3\n        /* \"#utility.yul\":7433:7447   */\n      add\n        /* \"#utility.yul\":7418:7447   */\n      swap1\n      pop\n        /* \"#utility.yul\":7380:7453   */\n      swap3\n      swap2\n      pop\n      pop\n      jump\t// out\n        /* \"#utility.yul\":7459:7555   */\n    tag_110:\n      0x00\n        /* \"#utility.yul\":7525:7549   */\n      tag_168\n        /* \"#utility.yul\":7543:7548   */\n      dup3\n        /* \"#utility.yul\":7525:7549   */\n      tag_169\n      jump\t// in\n    tag_168:\n        /* \"#utility.yul\":7514:7549   */\n      swap1\n      pop\n        /* \"#utility.yul\":7504:7555   */\n      swap2\n      swap1\n      pop\n      jump\t// out\n        /* \"#utility.yul\":7561:7651   */\n    tag_114:\n      0x00\n        /* \"#utility.yul\":7638:7643   */\n      dup2\n        /* \"#utility.yul\":7631:7644   */\n      iszero\n        /* \"#utility.yul\":7624:7645   */\n      iszero\n        /* \"#utility.yul\":7613:7645   */\n      swap1\n      pop\n        /* \"#utility.yul\":7603:7651   */\n      swap2\n      swap1\n      pop\n      jump\t// out\n        /* \"#utility.yul\":7657:7783   */\n    tag_169:\n      0x00\n        /* \"#utility.yul\":7734:7776   */\n      0xffffffffffffffffffffffffffffffffffffffff\n        /* \"#utility.yul\":7727:7732   */\n      dup3\n        /* \"#utility.yul\":7723:7777   */\n      and\n        /* \"#utility.yul\":7712:7777   */\n      swap1\n      pop\n        /* \"#utility.yul\":7702:7783   */\n      swap2\n      swap1\n      pop\n      jump\t// out\n        /* \"#utility.yul\":7789:7866   */\n    tag_141:\n      0x00\n        /* \"#utility.yul\":7855:7860   */\n      dup2\n        /* \"#utility.yul\":7844:7860   */\n      swap1\n      pop\n        /* \"#utility.yul\":7834:7866   */\n      swap2\n      swap1\n      pop\n      jump\t// out\n        /* \"#utility.yul\":7872:7994   */\n    tag_103:\n        /* \"#utility.yul\":7945:7969   */\n      tag_174\n        /* \"#utility.yul\":7963:7968   */\n      dup2\n        /* \"#utility.yul\":7945:7969   */\n      tag_110\n      jump\t// in\n    tag_174:\n        /* \"#utility.yul\":7938:7943   */\n      dup2\n        /* \"#utility.yul\":7935:7970   */\n      eq\n        /* \"#utility.yul\":7925:7927   */\n      tag_175\n      jumpi\n        /* \"#utility.yul\":7984:7985   */\n      0x00\n        /* \"#utility.yul\":7981:7982   */\n      dup1\n        /* \"#utility.yul\":7974:7986   */\n      revert\n        /* \"#utility.yul\":7925:7927   */\n    tag_175:\n        /* \"#utility.yul\":7915:7994   */\n      pop\n      jump\t// out\n\n    auxdata: 0xa2646970667358221220f552853c0736ebff47efd3c9dadfc8ce8b8aaf03637d861bb23eb9158a8b9ca564736f6c63430008000033\n}\n",
				"bytecode": {
					"linkReferences": {},
					"object": "608060405234801561001057600080fd5b50336000806101000a81548173ffffffffffffffffffffffffffffffffffffffff021916908373ffffffffffffffffffffffffffffffffffffffff160217905550610d6c806100606000396000f3fe6080604052600436106100915760003560e01c80636f9fb98a116100595780636f9fb98a1461017d578063ecb70fb7146101a8578063ecfc7ecc146101d3578063ee97f7f3146101dd578063fe67a54b1461020857610091565b8063235392241461009657806337271cc7146100c15780634c4caef7146100d857806362ea82db14610115578063636bf73014610152575b600080fd5b3480156100a257600080fd5b506100ab61021f565b6040516100b89190610b81565b60405180910390f35b3480156100cd57600080fd5b506100d6610245565b005b3480156100e457600080fd5b506100ff60048036038101906100fa919061090a565b61040f565b60405161010c9190610ca0565b60405180910390f35b34801561012157600080fd5b5061013c6004803603810190610137919061090a565b610458565b6040516101499190610ca0565b60405180910390f35b34801561015e57600080fd5b50610167610470565b6040516101749190610ca0565b60405180910390f35b34801561018957600080fd5b50610192610476565b60405161019f9190610ca0565b60405180910390f35b3480156101b457600080fd5b506101bd61047e565b6040516101ca9190610bc5565b60405180910390f35b6101db610491565b005b3480156101e957600080fd5b506101f26106a9565b6040516101ff9190610b81565b60405180910390f35b34801561021457600080fd5b5061021d6106cd565b005b600160009054906101000a900473ffffffffffffffffffffffffffffffffffffffff1681565b6000600460003373ffffffffffffffffffffffffffffffffffffffff1673ffffffffffffffffffffffffffffffffffffffff168152602001908152602001600020549050600081116102cc576040517f08c379a00000000000000000000000000000000000000000000000000000000081526004016102c390610c80565b60405180910390fd5b6000600460003373ffffffffffffffffffffffffffffffffffffffff1673ffffffffffffffffffffffffffffffffffffffff1681526020019081526020016000208190555060003373ffffffffffffffffffffffffffffffffffffffff168260405161033790610b6c565b60006040518083038185875af1925050503d8060008114610374576040519150601f19603f3d011682016040523d82523d6000602084013e610379565b606091505b50509050806103bd576040517f08c379a00000000000000000000000000000000000000000000000000000000081526004016103b490610be0565b60405180910390fd5b3373ffffffffffffffffffffffffffffffffffffffff167f12606bee7a7a46f74b6b0466368de6d182b9bade27d591b3537fd0f6040c2825836040516104039190610ca0565b60405180910390a25050565b6000600460008373ffffffffffffffffffffffffffffffffffffffff1673ffffffffffffffffffffffffffffffffffffffff168152602001908152602001600020549050919050565b60046020528060005260406000206000915090505481565b60025481565b600047905090565b600360009054906101000a900460ff1681565b600360009054906101000a900460ff16156104e1576040517f08c379a00000000000000000000000000000000000000000000000000000000081526004016104d890610c00565b60405180910390fd5b60003411610524576040517f08c379a000000000000000000000000000000000000000000000000000000000815260040161051b90610c20565b60405180910390fd5b6002543411610568576040517f08c379a000000000000000000000000000000000000000000000000000000000815260040161055f90610c40565b60405180910390fd5b6000600160009054906101000a900473ffffffffffffffffffffffffffffffffffffffff169050600060025490503460028190555033600160006101000a81548173ffffffffffffffffffffffffffffffffffffffff021916908373ffffffffffffffffffffffffffffffffffffffff160217905550600073ffffffffffffffffffffffffffffffffffffffff168273ffffffffffffffffffffffffffffffffffffffff16146106575780600460008473ffffffffffffffffffffffffffffffffffffffff1673ffffffffffffffffffffffffffffffffffffffff168152602001908152602001600020819055505b3373ffffffffffffffffffffffffffffffffffffffff167fdd0b6c6a77960e2066c96171b4d7ac9e8b4c184011f38544afa36a5bb63ec59f3460405161069d9190610ca0565b60405180910390a25050565b60008054906101000a900473ffffffffffffffffffffffffffffffffffffffff1681565b60008054906101000a900473ffffffffffffffffffffffffffffffffffffffff1673ffffffffffffffffffffffffffffffffffffffff163373ffffffffffffffffffffffffffffffffffffffff161461075b576040517f08c379a000000000000000000000000000000000000000000000000000000000815260040161075290610c60565b60405180910390fd5b600360009054906101000a900460ff16156107ab576040517f08c379a00000000000000000000000000000000000000000000000000000000081526004016107a290610c00565b60405180910390fd5b6001600360006101000a81548160ff0219169083151502179055507fdaec4582d5d9595688c8c98545fdd1c696d41c6aeaeb636737e84ed2f5c00eda600160009054906101000a900473ffffffffffffffffffffffffffffffffffffffff1660025460405161081b929190610b9c565b60405180910390a160008060009054906101000a900473ffffffffffffffffffffffffffffffffffffffff1673ffffffffffffffffffffffffffffffffffffffff1660025460405161086c90610b6c565b60006040518083038185875af1925050503d80600081146108a9576040519150601f19603f3d011682016040523d82523d6000602084013e6108ae565b606091505b50509050806108f2576040517f08c379a00000000000000000000000000000000000000000000000000000000081526004016108e990610be0565b60405180910390fd5b50565b60008135905061090481610d1f565b92915050565b60006020828403121561091c57600080fd5b600061092a848285016108f5565b91505092915050565b61093c81610cd7565b82525050565b61094b81610ce9565b82525050565b600061095e600f83610cc6565b91507f5472616e73666572206661696c656400000000000000000000000000000000006000830152602082019050919050565b600061099e601983610cc6565b91507f41756374696f6e2068617320616c726561647920656e646564000000000000006000830152602082019050919050565b60006109de602183610cc6565b91507f42696420616d6f756e74206d7573742062652067726561746572207468616e2060008301527f30000000000000000000000000000000000000000000000000000000000000006020830152604082019050919050565b6000610a44602783610cc6565b91507f426964206d75737420626520686967686572207468616e2063757272656e742060008301527f746f7020626964000000000000000000000000000000000000000000000000006020830152604082019050919050565b6000610aaa602283610cc6565b91507f4f6e6c79206d61737465722063616e2063616c6c20746869732066756e63746960008301527f6f6e0000000000000000000000000000000000000000000000000000000000006020830152604082019050919050565b6000610b10601c83610cc6565b91507f4e6f2062696420617661696c61626c6520746f207769746864726177000000006000830152602082019050919050565b6000610b50600083610cbb565b9150600082019050919050565b610b6681610d15565b82525050565b6000610b7782610b43565b9150819050919050565b6000602082019050610b966000830184610933565b92915050565b6000604082019050610bb16000830185610933565b610bbe6020830184610b5d565b9392505050565b6000602082019050610bda6000830184610942565b92915050565b60006020820190508181036000830152610bf981610951565b9050919050565b60006020820190508181036000830152610c1981610991565b9050919050565b60006020820190508181036000830152610c39816109d1565b9050919050565b60006020820190508181036000830152610c5981610a37565b9050919050565b60006020820190508181036000830152610c7981610a9d565b9050919050565b60006020820190508181036000830152610c9981610b03565b9050919050565b6000602082019050610cb56000830184610b5d565b92915050565b600081905092915050565b600082825260208201905092915050565b6000610ce282610cf5565b9050919050565b60008115159050919050565b600073ffffffffffffffffffffffffffffffffffffffff82169050919050565b6000819050919050565b610d2881610cd7565b8114610d3357600080fd5b5056fea2646970667358221220f552853c0736ebff47efd3c9dadfc8ce8b8aaf03637d861bb23eb9158a8b9ca564736f6c63430008000033",
					"opcodes": "PUSH1 0x80 PUSH1 0x40 MSTORE CALLVALUE DUP1 ISZERO PUSH2 0x10 JUMPI PUSH1 0x0 DUP1 REVERT JUMPDEST POP CALLER PUSH1 0x0 DUP1 PUSH2 0x100 EXP DUP2 SLOAD DUP2 PUSH20 0xFFFFFFFFFFFFFFFFFFFFFFFFFFFFFFFFFFFFFFFF MUL NOT AND SWAP1 DUP4 PUSH20 0xFFFFFFFFFFFFFFFFFFFFFFFFFFFFFFFFFFFFFFFF AND MUL OR SWAP1 SSTORE POP PUSH2 0xD6C DUP1 PUSH2 0x60 PUSH1 0x0 CODECOPY PUSH1 0x0 RETURN INVALID PUSH1 0x80 PUSH1 0x40 MSTORE PUSH1 0x4 CALLDATASIZE LT PUSH2 0x91 JUMPI PUSH1 0x0 CALLDATALOAD PUSH1 0xE0 SHR DUP1 PUSH4 0x6F9FB98A GT PUSH2 0x59 JUMPI DUP1 PUSH4 0x6F9FB98A EQ PUSH2 0x17D JUMPI DUP1 PUSH4 0xECB70FB7 EQ PUSH2 0x1A8 JUMPI DUP1 PUSH4 0xECFC7ECC EQ PUSH2 0x1D3 JUMPI DUP1 PUSH4 0xEE97F7F3 EQ PUSH2 0x1DD JUMPI DUP1 PUSH4 0xFE67A54B EQ PUSH2 0x208 JUMPI PUSH2 0x91 JUMP JUMPDEST DUP1 PUSH4 0x23539224 EQ PUSH2 0x96 JUMPI DUP1 PUSH4 0x37271CC7 EQ PUSH2 0xC1 JUMPI DUP1 PUSH4 0x4C4CAEF7 EQ PUSH2 0xD8 JUMPI DUP1 PUSH4 0x62EA82DB EQ PUSH2 0x115 JUMPI DUP1 PUSH4 0x636BF730 EQ PUSH2 0x152 JUMPI JUMPDEST PUSH1 0x0 DUP1 REVERT JUMPDEST CALLVALUE DUP1 ISZERO PUSH2 0xA2 JUMPI PUSH1 0x0 DUP1 REVERT JUMPDEST POP PUSH2 0xAB PUSH2 0x21F JUMP JUMPDEST PUSH1 0x40 MLOAD PUSH2 0xB8 SWAP2 SWAP1 PUSH2 0xB81 JUMP JUMPDEST PUSH1 0x40 MLOAD DUP1 SWAP2 SUB SWAP1 RETURN JUMPDEST CALLVALUE DUP1 ISZERO PUSH2 0xCD JUMPI PUSH1 0x0 DUP1 REVERT JUMPDEST POP PUSH2 0xD6 PUSH2 0x245 JUMP JUMPDEST STOP JUMPDEST CALLVALUE DUP1 ISZERO PUSH2 0xE4 JUMPI PUSH1 0x0 DUP1 REVERT JUMPDEST POP PUSH2 0xFF PUSH1 0x4 DUP1 CALLDATASIZE SUB DUP2 ADD SWAP1 PUSH2 0xFA SWAP2 SWAP1 PUSH2 0x90A JUMP JUMPDEST PUSH2 0x40F JUMP JUMPDEST PUSH1 0x40 MLOAD PUSH2 0x10C SWAP2 SWAP1 PUSH2 0xCA0 JUMP JUMPDEST PUSH1 0x40 MLOAD DUP1 SWAP2 SUB SWAP1 RETURN JUMPDEST CALLVALUE DUP1 ISZERO PUSH2 0x121 JUMPI PUSH1 0x0 DUP1 REVERT JUMPDEST POP PUSH2 0x13C PUSH1 0x4 DUP1 CALLDATASIZE SUB DUP2 ADD SWAP1 PUSH2 0x137 SWAP2 SWAP1 PUSH2 0x90A JUMP JUMPDEST PUSH2 0x458 JUMP JUMPDEST PUSH1 0x40 MLOAD PUSH2 0x149 SWAP2 SWAP1 PUSH2 0xCA0 JUMP JUMPDEST PUSH1 0x40 MLOAD DUP1 SWAP2 SUB SWAP1 RETURN JUMPDEST CALLVALUE DUP1 ISZERO PUSH2 0x15E JUMPI PUSH1 0x0 DUP1 REVERT JUMPDEST POP PUSH2 0x167 PUSH2 0x470 JUMP JUMPDEST PUSH1 0x40 MLOAD PUSH2 0x174 SWAP2 SWAP1 PUSH2 0xCA0 JUMP JUMPDEST PUSH1 0x40 MLOAD DUP1 SWAP2 SUB SWAP1 RETURN JUMPDEST CALLVALUE DUP1 ISZERO PUSH2 0x189 JUMPI PUSH1 0x0 DUP1 REVERT JUMPDEST POP PUSH2 0x192 PUSH2 0x476 JUMP JUMPDEST PUSH1 0x40 MLOAD PUSH2 0x19F SWAP2 SWAP1 PUSH2 0xCA0 JUMP JUMPDEST PUSH1 0x40 MLOAD DUP1 SWAP2 SUB SWAP1 RETURN JUMPDEST CALLVALUE DUP1 ISZERO PUSH2 0x1B4 JUMPI PUSH1 0x0 DUP1 REVERT JUMPDEST POP PUSH2 0x1BD PUSH2 0x47E JUMP JUMPDEST PUSH1 0x40 MLOAD PUSH2 0x1CA SWAP2 SWAP1 PUSH2 0xBC5 JUMP JUMPDEST PUSH1 0x40 MLOAD DUP1 SWAP2 SUB SWAP1 RETURN JUMPDEST PUSH2 0x1DB PUSH2 0x491 JUMP JUMPDEST STOP JUMPDEST CALLVALUE DUP1 ISZERO PUSH2 0x1E9 JUMPI PUSH1 0x0 DUP1 REVERT JUMPDEST POP PUSH2 0x1F2 PUSH2 0x6A9 JUMP JUMPDEST PUSH1 0x40 MLOAD PUSH2 0x1FF SWAP2 SWAP1 PUSH2 0xB81 JUMP JUMPDEST PUSH1 0x40 MLOAD DUP1 SWAP2 SUB SWAP1 RETURN JUMPDEST CALLVALUE DUP1 ISZERO PUSH2 0x214 JUMPI PUSH1 0x0 DUP1 REVERT JUMPDEST POP PUSH2 0x21D PUSH2 0x6CD JUMP JUMPDEST STOP JUMPDEST PUSH1 0x1 PUSH1 0x0 SWAP1 SLOAD SWAP1 PUSH2 0x100 EXP SWAP1 DIV PUSH20 0xFFFFFFFFFFFFFFFFFFFFFFFFFFFFFFFFFFFFFFFF AND DUP2 JUMP JUMPDEST PUSH1 0x0 PUSH1 0x4 PUSH1 0x0 CALLER PUSH20 0xFFFFFFFFFFFFFFFFFFFFFFFFFFFFFFFFFFFFFFFF AND PUSH20 0xFFFFFFFFFFFFFFFFFFFFFFFFFFFFFFFFFFFFFFFF AND DUP2 MSTORE PUSH1 0x20 ADD SWAP1 DUP2 MSTORE PUSH1 0x20 ADD PUSH1 0x0 KECCAK256 SLOAD SWAP1 POP PUSH1 0x0 DUP2 GT PUSH2 0x2CC JUMPI PUSH1 0x40 MLOAD PUSH32 0x8C379A000000000000000000000000000000000000000000000000000000000 DUP2 MSTORE PUSH1 0x4 ADD PUSH2 0x2C3 SWAP1 PUSH2 0xC80 JUMP JUMPDEST PUSH1 0x40 MLOAD DUP1 SWAP2 SUB SWAP1 REVERT JUMPDEST PUSH1 0x0 PUSH1 0x4 PUSH1 0x0 CALLER PUSH20 0xFFFFFFFFFFFFFFFFFFFFFFFFFFFFFFFFFFFFFFFF AND PUSH20 0xFFFFFFFFFFFFFFFFFFFFFFFFFFFFFFFFFFFFFFFF AND DUP2 MSTORE PUSH1 0x20 ADD SWAP1 DUP2 MSTORE PUSH1 0x20 ADD PUSH1 0x0 KECCAK256 DUP2 SWAP1 SSTORE POP PUSH1 0x0 CALLER PUSH20 0xFFFFFFFFFFFFFFFFFFFFFFFFFFFFFFFFFFFFFFFF AND DUP3 PUSH1 0x40 MLOAD PUSH2 0x337 SWAP1 PUSH2 0xB6C JUMP JUMPDEST PUSH1 0x0 PUSH1 0x40 MLOAD DUP1 DUP4 SUB DUP2 DUP6 DUP8 GAS CALL SWAP3 POP POP POP RETURNDATASIZE DUP1 PUSH1 0x0 DUP2 EQ PUSH2 0x374 JUMPI PUSH1 0x40 MLOAD SWAP2 POP PUSH1 0x1F NOT PUSH1 0x3F RETURNDATASIZE ADD AND DUP3 ADD PUSH1 0x40 MSTORE RETURNDATASIZE DUP3 MSTORE RETURNDATASIZE PUSH1 0x0 PUSH1 0x20 DUP5 ADD RETURNDATACOPY PUSH2 0x379 JUMP JUMPDEST PUSH1 0x60 SWAP2 POP JUMPDEST POP POP SWAP1 POP DUP1 PUSH2 0x3BD JUMPI PUSH1 0x40 MLOAD PUSH32 0x8C379A000000000000000000000000000000000000000000000000000000000 DUP2 MSTORE PUSH1 0x4 ADD PUSH2 0x3B4 SWAP1 PUSH2 0xBE0 JUMP JUMPDEST PUSH1 0x40 MLOAD DUP1 SWAP2 SUB SWAP1 REVERT JUMPDEST CALLER PUSH20 0xFFFFFFFFFFFFFFFFFFFFFFFFFFFFFFFFFFFFFFFF AND PUSH32 0x12606BEE7A7A46F74B6B0466368DE6D182B9BADE27D591B3537FD0F6040C2825 DUP4 PUSH1 0x40 MLOAD PUSH2 0x403 SWAP2 SWAP1 PUSH2 0xCA0 JUMP JUMPDEST PUSH1 0x40 MLOAD DUP1 SWAP2 SUB SWAP1 LOG2 POP POP JUMP JUMPDEST PUSH1 0x0 PUSH1 0x4 PUSH1 0x0 DUP4 PUSH20 0xFFFFFFFFFFFFFFFFFFFFFFFFFFFFFFFFFFFFFFFF AND PUSH20 0xFFFFFFFFFFFFFFFFFFFFFFFFFFFFFFFFFFFFFFFF AND DUP2 MSTORE PUSH1 0x20 ADD SWAP1 DUP2 MSTORE PUSH1 0x20 ADD PUSH1 0x0 KECCAK256 SLOAD SWAP1 POP SWAP2 SWAP1 POP JUMP JUMPDEST PUSH1 0x4 PUSH1 0x20 MSTORE DUP1 PUSH1 0x0 MSTORE PUSH1 0x40 PUSH1 0x0 KECCAK256 PUSH1 0x0 SWAP2 POP SWAP1 POP SLOAD DUP2 JUMP JUMPDEST PUSH1 0x2 SLOAD DUP2 JUMP JUMPDEST PUSH1 0x0 SELFBALANCE SWAP1 POP SWAP1 JUMP JUMPDEST PUSH1 0x3 PUSH1 0x0 SWAP1 SLOAD SWAP1 PUSH2 0x100 EXP SWAP1 DIV PUSH1 0xFF AND DUP2 JUMP JUMPDEST PUSH1 0x3 PUSH1 0x0 SWAP1 SLOAD SWAP1 PUSH2 0x100 EXP SWAP1 DIV PUSH1 0xFF AND ISZERO PUSH2 0x4E1 JUMPI PUSH1 0x40 MLOAD PUSH32 0x8C379A000000000000000000000000000000000000000000000000000000000 DUP2 MSTORE PUSH1 0x4 ADD PUSH2 0x4D8 SWAP1 PUSH2 0xC00 JUMP JUMPDEST PUSH1 0x40 MLOAD DUP1 SWAP2 SUB SWAP1 REVERT JUMPDEST PUSH1 0x0 CALLVALUE GT PUSH2 0x524 JUMPI PUSH1 0x40 MLOAD PUSH32 0x8C379A000000000000000000000000000000000000000000000000000000000 DUP2 MSTORE PUSH1 0x4 ADD PUSH2 0x51B SWAP1 PUSH2 0xC20 JUMP JUMPDEST PUSH1 0x40 MLOAD DUP1 SWAP2 SUB SWAP1 REVERT JUMPDEST PUSH1 0x2 SLOAD CALLVALUE GT PUSH2 0x568 JUMPI PUSH1 0x40 MLOAD PUSH32 0x8C379A000000000000000000000000000000000000000000000000000000000 DUP2 MSTORE PUSH1 0x4 ADD PUSH2 0x55F SWAP1 PUSH2 0xC40 JUMP JUMPDEST PUSH1 0x40 MLOAD DUP1 SWAP2 SUB SWAP1 REVERT JUMPDEST PUSH1 0x0 PUSH1 0x1 PUSH1 0x0 SWAP1 SLOAD SWAP1 PUSH2 0x100 EXP SWAP1 DIV PUSH20 0xFFFFFFFFFFFFFFFFFFFFFFFFFFFFFFFFFFFFFFFF AND SWAP1 POP PUSH1 0x0 PUSH1 0x2 SLOAD SWAP1 POP CALLVALUE PUSH1 0x2 DUP2 SWAP1 SSTORE POP CALLER PUSH1 0x1 PUSH1 0x0 PUSH2 0x100 EXP DUP2 SLOAD DUP2 PUSH20 0xFFFFFFFFFFFFFFFFFFFFFFFFFFFFFFFFFFFFFFFF MUL NOT AND SWAP1 DUP4 PUSH20 0xFFFFFFFFFFFFFFFFFFFFFFFFFFFFFFFFFFFFFFFF AND MUL OR SWAP1 SSTORE POP PUSH1 0x0 PUSH20 0xFFFFFFFFFFFFFFFFFFFFFFFFFFFFFFFFFFFFFFFF AND DUP3 PUSH20 0xFFFFFFFFFFFFFFFFFFFFFFFFFFFFFFFFFFFFFFFF AND EQ PUSH2 0x657 JUMPI DUP1 PUSH1 0x4 PUSH1 0x0 DUP5 PUSH20 0xFFFFFFFFFFFFFFFFFFFFFFFFFFFFFFFFFFFFFFFF AND PUSH20 0xFFFFFFFFFFFFFFFFFFFFFFFFFFFFFFFFFFFFFFFF AND DUP2 MSTORE PUSH1 0x20 ADD SWAP1 DUP2 MSTORE PUSH1 0x20 ADD PUSH1 0x0 KECCAK256 DUP2 SWAP1 SSTORE POP JUMPDEST CALLER PUSH20 0xFFFFFFFFFFFFFFFFFFFFFFFFFFFFFFFFFFFFFFFF AND PUSH32 0xDD0B6C6A77960E2066C96171B4D7AC9E8B4C184011F38544AFA36A5BB63EC59F CALLVALUE PUSH1 0x40 MLOAD PUSH2 0x69D SWAP2 SWAP1 PUSH2 0xCA0 JUMP JUMPDEST PUSH1 0x40 MLOAD DUP1 SWAP2 SUB SWAP1 LOG2 POP POP JUMP JUMPDEST PUSH1 0x0 DUP1 SLOAD SWAP1 PUSH2 0x100 EXP SWAP1 DIV PUSH20 0xFFFFFFFFFFFFFFFFFFFFFFFFFFFFFFFFFFFFFFFF AND DUP2 JUMP JUMPDEST PUSH1 0x0 DUP1 SLOAD SWAP1 PUSH2 0x100 EXP SWAP1 DIV PUSH20 0xFFFFFFFFFFFFFFFFFFFFFFFFFFFFFFFFFFFFFFFF AND PUSH20 0xFFFFFFFFFFFFFFFFFFFFFFFFFFFFFFFFFFFFFFFF AND CALLER PUSH20 0xFFFFFFFFFFFFFFFFFFFFFFFFFFFFFFFFFFFFFFFF AND EQ PUSH2 0x75B JUMPI PUSH1 0x40 MLOAD PUSH32 0x8C379A000000000000000000000000000000000000000000000000000000000 DUP2 MSTORE PUSH1 0x4 ADD PUSH2 0x752 SWAP1 PUSH2 0xC60 JUMP JUMPDEST PUSH1 0x40 MLOAD DUP1 SWAP2 SUB SWAP1 REVERT JUMPDEST PUSH1 0x3 PUSH1 0x0 SWAP1 SLOAD SWAP1 PUSH2 0x100 EXP SWAP1 DIV PUSH1 0xFF AND ISZERO PUSH2 0x7AB JUMPI PUSH1 0x40 MLOAD PUSH32 0x8C379A000000000000000000000000000000000000000000000000000000000 DUP2 MSTORE PUSH1 0x4 ADD PUSH2 0x7A2 SWAP1 PUSH2 0xC00 JUMP JUMPDEST PUSH1 0x40 MLOAD DUP1 SWAP2 SUB SWAP1 REVERT JUMPDEST PUSH1 0x1 PUSH1 0x3 PUSH1 0x0 PUSH2 0x100 EXP DUP2 SLOAD DUP2 PUSH1 0xFF MUL NOT AND SWAP1 DUP4 ISZERO ISZERO MUL OR SWAP1 SSTORE POP PUSH32 0xDAEC4582D5D9595688C8C98545FDD1C696D41C6AEAEB636737E84ED2F5C00EDA PUSH1 0x1 PUSH1 0x0 SWAP1 SLOAD SWAP1 PUSH2 0x100 EXP SWAP1 DIV PUSH20 0xFFFFFFFFFFFFFFFFFFFFFFFFFFFFFFFFFFFFFFFF AND PUSH1 0x2 SLOAD PUSH1 0x40 MLOAD PUSH2 0x81B SWAP3 SWAP2 SWAP1 PUSH2 0xB9C JUMP JUMPDEST PUSH1 0x40 MLOAD DUP1 SWAP2 SUB SWAP1 LOG1 PUSH1 0x0 DUP1 PUSH1 0x0 SWAP1 SLOAD SWAP1 PUSH2 0x100 EXP SWAP1 DIV PUSH20 0xFFFFFFFFFFFFFFFFFFFFFFFFFFFFFFFFFFFFFFFF AND PUSH20 0xFFFFFFFFFFFFFFFFFFFFFFFFFFFFFFFFFFFFFFFF AND PUSH1 0x2 SLOAD PUSH1 0x40 MLOAD PUSH2 0x86C SWAP1 PUSH2 0xB6C JUMP JUMPDEST PUSH1 0x0 PUSH1 0x40 MLOAD DUP1 DUP4 SUB DUP2 DUP6 DUP8 GAS CALL SWAP3 POP POP POP RETURNDATASIZE DUP1 PUSH1 0x0 DUP2 EQ PUSH2 0x8A9 JUMPI PUSH1 0x40 MLOAD SWAP2 POP PUSH1 0x1F NOT PUSH1 0x3F RETURNDATASIZE ADD AND DUP3 ADD PUSH1 0x40 MSTORE RETURNDATASIZE DUP3 MSTORE RETURNDATASIZE PUSH1 0x0 PUSH1 0x20 DUP5 ADD RETURNDATACOPY PUSH2 0x8AE JUMP JUMPDEST PUSH1 0x60 SWAP2 POP JUMPDEST POP POP SWAP1 POP DUP1 PUSH2 0x8F2 JUMPI PUSH1 0x40 MLOAD PUSH32 0x8C379A000000000000000000000000000000000000000000000000000000000 DUP2 MSTORE PUSH1 0x4 ADD PUSH2 0x8E9 SWAP1 PUSH2 0xBE0 JUMP JUMPDEST PUSH1 0x40 MLOAD DUP1 SWAP2 SUB SWAP1 REVERT JUMPDEST POP JUMP JUMPDEST PUSH1 0x0 DUP2 CALLDATALOAD SWAP1 POP PUSH2 0x904 DUP2 PUSH2 0xD1F JUMP JUMPDEST SWAP3 SWAP2 POP POP JUMP JUMPDEST PUSH1 0x0 PUSH1 0x20 DUP3 DUP5 SUB SLT ISZERO PUSH2 0x91C JUMPI PUSH1 0x0 DUP1 REVERT JUMPDEST PUSH1 0x0 PUSH2 0x92A DUP5 DUP3 DUP6 ADD PUSH2 0x8F5 JUMP JUMPDEST SWAP2 POP POP SWAP3 SWAP2 POP POP JUMP JUMPDEST PUSH2 0x93C DUP2 PUSH2 0xCD7 JUMP JUMPDEST DUP3 MSTORE POP POP JUMP JUMPDEST PUSH2 0x94B DUP2 PUSH2 0xCE9 JUMP JUMPDEST DUP3 MSTORE POP POP JUMP JUMPDEST PUSH1 0x0 PUSH2 0x95E PUSH1 0xF DUP4 PUSH2 0xCC6 JUMP JUMPDEST SWAP2 POP PUSH32 0x5472616E73666572206661696C65640000000000000000000000000000000000 PUSH1 0x0 DUP4 ADD MSTORE PUSH1 0x20 DUP3 ADD SWAP1 POP SWAP2 SWAP1 POP JUMP JUMPDEST PUSH1 0x0 PUSH2 0x99E PUSH1 0x19 DUP4 PUSH2 0xCC6 JUMP JUMPDEST SWAP2 POP PUSH32 0x41756374696F6E2068617320616C726561647920656E64656400000000000000 PUSH1 0x0 DUP4 ADD MSTORE PUSH1 0x20 DUP3 ADD SWAP1 POP SWAP2 SWAP1 POP JUMP JUMPDEST PUSH1 0x0 PUSH2 0x9DE PUSH1 0x21 DUP4 PUSH2 0xCC6 JUMP JUMPDEST SWAP2 POP PUSH32 0x42696420616D6F756E74206D7573742062652067726561746572207468616E20 PUSH1 0x0 DUP4 ADD MSTORE PUSH32 0x3000000000000000000000000000000000000000000000000000000000000000 PUSH1 0x20 DUP4 ADD MSTORE PUSH1 0x40 DUP3 ADD SWAP1 POP SWAP2 SWAP1 POP JUMP JUMPDEST PUSH1 0x0 PUSH2 0xA44 PUSH1 0x27 DUP4 PUSH2 0xCC6 JUMP JUMPDEST SWAP2 POP PUSH32 0x426964206D75737420626520686967686572207468616E2063757272656E7420 PUSH1 0x0 DUP4 ADD MSTORE PUSH32 0x746F702062696400000000000000000000000000000000000000000000000000 PUSH1 0x20 DUP4 ADD MSTORE PUSH1 0x40 DUP3 ADD SWAP1 POP SWAP2 SWAP1 POP JUMP JUMPDEST PUSH1 0x0 PUSH2 0xAAA PUSH1 0x22 DUP4 PUSH2 0xCC6 JUMP JUMPDEST SWAP2 POP PUSH32 0x4F6E6C79206D61737465722063616E2063616C6C20746869732066756E637469 PUSH1 0x0 DUP4 ADD MSTORE PUSH32 0x6F6E000000000000000000000000000000000000000000000000000000000000 PUSH1 0x20 DUP4 ADD MSTORE PUSH1 0x40 DUP3 ADD SWAP1 POP SWAP2 SWAP1 POP JUMP JUMPDEST PUSH1 0x0 PUSH2 0xB10 PUSH1 0x1C DUP4 PUSH2 0xCC6 JUMP JUMPDEST SWAP2 POP PUSH32 0x4E6F2062696420617661696C61626C6520746F20776974686472617700000000 PUSH1 0x0 DUP4 ADD MSTORE PUSH1 0x20 DUP3 ADD SWAP1 POP SWAP2 SWAP1 POP JUMP JUMPDEST PUSH1 0x0 PUSH2 0xB50 PUSH1 0x0 DUP4 PUSH2 0xCBB JUMP JUMPDEST SWAP2 POP PUSH1 0x0 DUP3 ADD SWAP1 POP SWAP2 SWAP1 POP JUMP JUMPDEST PUSH2 0xB66 DUP2 PUSH2 0xD15 JUMP JUMPDEST DUP3 MSTORE POP POP JUMP JUMPDEST PUSH1 0x0 PUSH2 0xB77 DUP3 PUSH2 0xB43 JUMP JUMPDEST SWAP2 POP DUP2 SWAP1 POP SWAP2 SWAP1 POP JUMP JUMPDEST PUSH1 0x0 PUSH1 0x20 DUP3 ADD SWAP1 POP PUSH2 0xB96 PUSH1 0x0 DUP4 ADD DUP5 PUSH2 0x933 JUMP JUMPDEST SWAP3 SWAP2 POP POP JUMP JUMPDEST PUSH1 0x0 PUSH1 0x40 DUP3 ADD SWAP1 POP PUSH2 0xBB1 PUSH1 0x0 DUP4 ADD DUP6 PUSH2 0x933 JUMP JUMPDEST PUSH2 0xBBE PUSH1 0x20 DUP4 ADD DUP5 PUSH2 0xB5D JUMP JUMPDEST SWAP4 SWAP3 POP POP POP JUMP JUMPDEST PUSH1 0x0 PUSH1 0x20 DUP3 ADD SWAP1 POP PUSH2 0xBDA PUSH1 0x0 DUP4 ADD DUP5 PUSH2 0x942 JUMP JUMPDEST SWAP3 SWAP2 POP POP JUMP JUMPDEST PUSH1 0x0 PUSH1 0x20 DUP3 ADD SWAP1 POP DUP2 DUP2 SUB PUSH1 0x0 DUP4 ADD MSTORE PUSH2 0xBF9 DUP2 PUSH2 0x951 JUMP JUMPDEST SWAP1 POP SWAP2 SWAP1 POP JUMP JUMPDEST PUSH1 0x0 PUSH1 0x20 DUP3 ADD SWAP1 POP DUP2 DUP2 SUB PUSH1 0x0 DUP4 ADD MSTORE PUSH2 0xC19 DUP2 PUSH2 0x991 JUMP JUMPDEST SWAP1 POP SWAP2 SWAP1 POP JUMP JUMPDEST PUSH1 0x0 PUSH1 0x20 DUP3 ADD SWAP1 POP DUP2 DUP2 SUB PUSH1 0x0 DUP4 ADD MSTORE PUSH2 0xC39 DUP2 PUSH2 0x9D1 JUMP JUMPDEST SWAP1 POP SWAP2 SWAP1 POP JUMP JUMPDEST PUSH1 0x0 PUSH1 0x20 DUP3 ADD SWAP1 POP DUP2 DUP2 SUB PUSH1 0x0 DUP4 ADD MSTORE PUSH2 0xC59 DUP2 PUSH2 0xA37 JUMP JUMPDEST SWAP1 POP SWAP2 SWAP1 POP JUMP JUMPDEST PUSH1 0x0 PUSH1 0x20 DUP3 ADD SWAP1 POP DUP2 DUP2 SUB PUSH1 0x0 DUP4 ADD MSTORE PUSH2 0xC79 DUP2 PUSH2 0xA9D JUMP JUMPDEST SWAP1 POP SWAP2 SWAP1 POP JUMP JUMPDEST PUSH1 0x0 PUSH1 0x20 DUP3 ADD SWAP1 POP DUP2 DUP2 SUB PUSH1 0x0 DUP4 ADD MSTORE PUSH2 0xC99 DUP2 PUSH2 0xB03 JUMP JUMPDEST SWAP1 POP SWAP2 SWAP1 POP JUMP JUMPDEST PUSH1 0x0 PUSH1 0x20 DUP3 ADD SWAP1 POP PUSH2 0xCB5 PUSH1 0x0 DUP4 ADD DUP5 PUSH2 0xB5D JUMP JUMPDEST SWAP3 SWAP2 POP POP JUMP JUMPDEST PUSH1 0x0 DUP2 SWAP1 POP SWAP3 SWAP2 POP POP JUMP JUMPDEST PUSH1 0x0 DUP3 DUP3 MSTORE PUSH1 0x20 DUP3 ADD SWAP1 POP SWAP3 SWAP2 POP POP JUMP JUMPDEST PUSH1 0x0 PUSH2 0xCE2 DUP3 PUSH2 0xCF5 JUMP JUMPDEST SWAP1 POP SWAP2 SWAP1 POP JUMP JUMPDEST PUSH1 0x0 DUP2 ISZERO ISZERO SWAP1 POP SWAP2 SWAP1 POP JUMP JUMPDEST PUSH1 0x0 PUSH20 0xFFFFFFFFFFFFFFFFFFFFFFFFFFFFFFFFFFFFFFFF DUP3 AND SWAP1 POP SWAP2 SWAP1 POP JUMP JUMPDEST PUSH1 0x0 DUP2 SWAP1 POP SWAP2 SWAP1 POP JUMP JUMPDEST PUSH2 0xD28 DUP2 PUSH2 0xCD7 JUMP JUMPDEST DUP2 EQ PUSH2 0xD33 JUMPI PUSH1 0x0 DUP1 REVERT JUMPDEST POP JUMP INVALID LOG2 PUSH5 0x6970667358 0x22 SLT KECCAK256 CREATE2 MSTORE DUP6 EXTCODECOPY SMOD CALLDATASIZE 0xEB SELFDESTRUCT SELFBALANCE 0xEF 0xD3 0xC9 0xDA 0xDF 0xC8 0xCE DUP12 DUP11 0xAF SUB PUSH4 0x7D861BB2 RETURNDATACOPY 0xB9 ISZERO DUP11 DUP12 SWAP13 0xA5 PUSH5 0x736F6C6343 STOP ADDMOD STOP STOP CALLER "
				},
				"gasEstimates": {
					"creation": {
						"codeDepositCost": "687200",
						"executionCost": "21587",
						"totalCost": "708787"
					},
					"external": {
						"bids(address)": "1581",
						"endAuction()": "infinite",
						"getContractBalance()": "339",
						"getWithdrawableBid(address)": "1586",
						"hasEnded()": "1193",
						"master()": "1277",
						"placeBid()": "66117",
						"topAddress()": "1215",
						"topBid()": "1218",
						"withdrawBid()": "infinite"
					}
				},
				"methodIdentifiers": {
					"bids(address)": "62ea82db",
					"endAuction()": "fe67a54b",
					"getContractBalance()": "6f9fb98a",
					"getWithdrawableBid(address)": "4c4caef7",
					"hasEnded()": "ecb70fb7",
					"master()": "ee97f7f3",
					"placeBid()": "ecfc7ecc",
					"topAddress()": "23539224",
					"topBid()": "636bf730",
					"withdrawBid()": "37271cc7"
				}
			},
			"storageLayout": {
				"storage": [
					{
						"astId": 5,
						"contract": "Auction.sol:Auction",
						"label": "master",
						"offset": 0,
						"slot": "0",
						"type": "t_address"
					},
					{
						"astId": 8,
						"contract": "Auction.sol:Auction",
						"label": "topAddress",
						"offset": 0,
						"slot": "1",
						"type": "t_address"
					},
					{
						"astId": 11,
						"contract": "Auction.sol:Auction",
						"label": "topBid",
						"offset": 0,
						"slot": "2",
						"type": "t_uint256"
					},
					{
						"astId": 14,
						"contract": "Auction.sol:Auction",
						"label": "hasEnded",
						"offset": 0,
						"slot": "3",
						"type": "t_bool"
					},
					{
						"astId": 19,
						"contract": "Auction.sol:Auction",
						"label": "bids",
						"offset": 0,
						"slot": "4",
						"type": "t_mapping(t_address,t_uint256)"
					}
				],
				"types": {
					"t_address": {
						"encoding": "inplace",
						"label": "address",
						"numberOfBytes": "20"
					},
					"t_bool": {
						"encoding": "inplace",
						"label": "bool",
						"numberOfBytes": "1"
					},
					"t_mapping(t_address,t_uint256)": {
						"encoding": "mapping",
						"key": "t_address",
						"label": "mapping(address => uint256)",
						"numberOfBytes": "32",
						"value": "t_uint256"
					},
					"t_uint256": {
						"encoding": "inplace",
						"label": "uint256",
						"numberOfBytes": "32"
					}
				}
			},
			"userdoc": {
				"events": {
					"AuctionEnded(address,uint256)": {
						"notice": "Emitted when a bid is cancelled and withdrawn"
					},
					"CancelBid(address,uint256)": {
						"notice": "Emitted when a new bid is placed"
					},
					"NewBid(address,uint256)": {
						"notice": "*** EVENTS ***"
					}
				},
				"kind": "user",
				"methods": {
					"bids(address)": {
						"notice": "indicating if the auction has concluded"
					},
					"endAuction()": {
						"notice": "Ends the auction and transfers the winning bid to master"
					},
					"getContractBalance()": {
						"notice": "Returns the current balance of the contract"
					},
					"getWithdrawableBid(address)": {
						"notice": "Returns the withdrawable bid amount for a given address"
					},
					"hasEnded()": {
						"notice": "Current highest bid amount in wei"
					},
					"master()": {
						"notice": "*** VARIBLES ***"
					},
					"placeBid()": {
						"notice": "Allows bidders to place new bids"
					},
					"topBid()": {
						"notice": "Address of the current highest bidder"
					},
					"withdrawBid()": {
						"notice": "Allows bidders to withdraw their outbid amounts"
					}
				},
				"notice": "This contract implements a simple auction system where bidders can place and withdraw bids",
				"version": 1
			}
		}
	}
}